{
  "contractName": "DutchAuction",
  "abi": [
    {
      "inputs": [
        {
          "internalType": "address payable",
          "name": "_wallet",
          "type": "address"
        },
        {
          "internalType": "uint256",
          "name": "_startingPrice",
          "type": "uint256"
        },
        {
          "internalType": "uint256",
          "name": "_priceFactor",
          "type": "uint256"
        }
      ],
      "stateMutability": "nonpayable",
      "type": "constructor"
    },
    {
      "anonymous": false,
      "inputs": [
        {
          "indexed": true,
          "internalType": "address",
          "name": "sender",
          "type": "address"
        },
        {
          "indexed": false,
          "internalType": "uint256",
          "name": "amount",
          "type": "uint256"
        }
      ],
      "name": "BidSubmission",
      "type": "event"
    },
    {
      "inputs": [],
      "name": "MAX_TOKENS_SOLD",
      "outputs": [
        {
          "internalType": "uint256",
          "name": "",
          "type": "uint256"
        }
      ],
      "stateMutability": "view",
      "type": "function",
      "constant": true
    },
    {
      "inputs": [],
      "name": "WAITING_PERIOD",
      "outputs": [
        {
          "internalType": "uint256",
          "name": "",
          "type": "uint256"
        }
      ],
      "stateMutability": "view",
      "type": "function",
      "constant": true
    },
    {
      "inputs": [
        {
          "internalType": "address",
          "name": "",
          "type": "address"
        }
      ],
      "name": "bids",
      "outputs": [
        {
          "internalType": "uint256",
          "name": "",
          "type": "uint256"
        }
      ],
      "stateMutability": "view",
      "type": "function",
      "constant": true
    },
    {
      "inputs": [],
      "name": "endTime",
      "outputs": [
        {
          "internalType": "uint256",
          "name": "",
          "type": "uint256"
        }
      ],
      "stateMutability": "view",
      "type": "function",
      "constant": true
    },
    {
      "inputs": [],
      "name": "finalPrice",
      "outputs": [
        {
          "internalType": "uint256",
          "name": "",
          "type": "uint256"
        }
      ],
      "stateMutability": "view",
      "type": "function",
      "constant": true
    },
    {
      "inputs": [],
      "name": "gldToken",
      "outputs": [
        {
          "internalType": "contract GLDToken",
          "name": "",
          "type": "address"
        }
      ],
      "stateMutability": "view",
      "type": "function",
      "constant": true
    },
    {
      "inputs": [],
      "name": "owner",
      "outputs": [
        {
          "internalType": "address",
          "name": "",
          "type": "address"
        }
      ],
      "stateMutability": "view",
      "type": "function",
      "constant": true
    },
    {
      "inputs": [],
      "name": "priceFactor",
      "outputs": [
        {
          "internalType": "uint256",
          "name": "",
          "type": "uint256"
        }
      ],
      "stateMutability": "view",
      "type": "function",
      "constant": true
    },
    {
      "inputs": [],
      "name": "stage",
      "outputs": [
        {
          "internalType": "enum DutchAuction.Stages",
          "name": "",
          "type": "uint8"
        }
      ],
      "stateMutability": "view",
      "type": "function",
      "constant": true
    },
    {
      "inputs": [],
      "name": "startBlock",
      "outputs": [
        {
          "internalType": "uint256",
          "name": "",
          "type": "uint256"
        }
      ],
      "stateMutability": "view",
      "type": "function",
      "constant": true
    },
    {
      "inputs": [],
      "name": "startTime",
      "outputs": [
        {
          "internalType": "uint256",
          "name": "",
          "type": "uint256"
        }
      ],
      "stateMutability": "view",
      "type": "function",
      "constant": true
    },
    {
      "inputs": [],
      "name": "startingPrice",
      "outputs": [
        {
          "internalType": "uint256",
          "name": "",
          "type": "uint256"
        }
      ],
      "stateMutability": "view",
      "type": "function",
      "constant": true
    },
    {
      "inputs": [],
      "name": "totalReceived",
      "outputs": [
        {
          "internalType": "uint256",
          "name": "",
          "type": "uint256"
        }
      ],
      "stateMutability": "view",
      "type": "function",
      "constant": true
    },
    {
      "inputs": [],
      "name": "wallet",
      "outputs": [
        {
          "internalType": "address payable",
          "name": "",
          "type": "address"
        }
      ],
      "stateMutability": "view",
      "type": "function",
      "constant": true
    },
    {
      "inputs": [
        {
          "internalType": "address",
          "name": "_gldToken",
          "type": "address"
        }
      ],
      "name": "setup",
      "outputs": [],
      "stateMutability": "nonpayable",
      "type": "function"
    },
    {
      "inputs": [],
      "name": "startAuction",
      "outputs": [],
      "stateMutability": "nonpayable",
      "type": "function"
    },
    {
      "inputs": [
        {
          "internalType": "uint256",
          "name": "_startingPrice",
          "type": "uint256"
        },
        {
          "internalType": "uint256",
          "name": "_priceFactor",
          "type": "uint256"
        }
      ],
      "name": "changeSettings",
      "outputs": [],
      "stateMutability": "nonpayable",
      "type": "function"
    },
    {
      "inputs": [],
      "name": "calcCurrentTokenPrice",
      "outputs": [
        {
          "internalType": "uint256",
          "name": "",
          "type": "uint256"
        }
      ],
      "stateMutability": "nonpayable",
      "type": "function"
    },
    {
      "inputs": [],
      "name": "updateStage",
      "outputs": [
        {
          "internalType": "enum DutchAuction.Stages",
          "name": "",
          "type": "uint8"
        }
      ],
      "stateMutability": "nonpayable",
      "type": "function"
    },
    {
      "inputs": [
        {
          "internalType": "address payable",
          "name": "receiver",
          "type": "address"
        }
      ],
      "name": "bid",
      "outputs": [
        {
          "internalType": "uint256",
          "name": "amount",
          "type": "uint256"
        }
      ],
      "stateMutability": "payable",
      "type": "function",
      "payable": true
    },
    {
      "inputs": [
        {
          "internalType": "address",
          "name": "receiver",
          "type": "address"
        }
      ],
      "name": "claimTokens",
      "outputs": [],
      "stateMutability": "nonpayable",
      "type": "function"
    },
    {
      "inputs": [],
      "name": "calcStopPrice",
      "outputs": [
        {
          "internalType": "uint256",
          "name": "",
          "type": "uint256"
        }
      ],
      "stateMutability": "view",
      "type": "function",
      "constant": true
    },
    {
      "inputs": [],
      "name": "calcTokenPrice",
      "outputs": [
        {
          "internalType": "uint256",
          "name": "",
          "type": "uint256"
        }
      ],
      "stateMutability": "view",
      "type": "function",
      "constant": true
    },
    {
      "inputs": [
        {
          "internalType": "uint256",
          "name": "longPrice",
          "type": "uint256"
        }
      ],
      "name": "toViewablePrice",
      "outputs": [
        {
          "internalType": "uint256",
          "name": "viewablePrice",
          "type": "uint256"
        }
      ],
      "stateMutability": "nonpayable",
      "type": "function"
    }
  ],
  "bytecode": "0x608060405234801561001057600080fd5b50604051611c99380380611c998339818101604052606081101561003357600080fd5b81019080805190602001909291908051906020019092919080519060200190929190505050600073ffffffffffffffffffffffffffffffffffffffff168373ffffffffffffffffffffffffffffffffffffffff1614806100935750600082145b8061009e5750600081145b15610111576040517f08c379a00000000000000000000000000000000000000000000000000000000081526004018080602001828103825260158152602001807f636f6e7374727563746f722061726773206e756c6c000000000000000000000081525060200191505060405180910390fd5b33600260006101000a81548173ffffffffffffffffffffffffffffffffffffffff021916908373ffffffffffffffffffffffffffffffffffffffff16021790555082600160006101000a81548173ffffffffffffffffffffffffffffffffffffffff021916908373ffffffffffffffffffffffffffffffffffffffff16021790555081600381905550806004819055506000600b60006101000a81548160ff021916908360048111156101c057fe5b0217905550505050611ac2806101d76000396000f3fe60806040526004361061014b5760003560e01c80638da5cb5b116100b6578063c062f5781161006f578063c062f5781461059f578063d6fbf202146105d8578063d9f8a4e214610603578063dd9dd6881461062e578063df8de3e714610659578063dfb2866d146106aa5761014b565b80638da5cb5b1461040a5780639939b8b2146104615780639cf5453d146104b8578063a3c2c46214610510578063a6b513ee1461053b578063c040e6b8146105665761014b565b8063521eb27311610108578063521eb2731461029057806362ea82db146102e757806366d382031461034c5780636b64c7691461039d5780636f85c7e4146103b457806378e97925146103df5761014b565b806315a3b3121461015057806317f5de951461019f5780633197cbb6146101ca57806336d02c94146101f557806339f64b521461023a57806348cd4cb114610265575b600080fd5b34801561015c57600080fd5b506101896004803603602081101561017357600080fd5b81019080803590602001909291905050506106d5565b6040518082815260200191505060405180910390f35b3480156101ab57600080fd5b506101b46106f3565b6040518082815260200191505060405180910390f35b3480156101d657600080fd5b506101df6106f8565b6040518082815260200191505060405180910390f35b34801561020157600080fd5b506102386004803603604081101561021857600080fd5b8101908080359060200190929190803590602001909291905050506106fe565b005b34801561024657600080fd5b5061024f610870565b6040518082815260200191505060405180910390f35b34801561027157600080fd5b5061027a61087a565b6040518082815260200191505060405180910390f35b34801561029c57600080fd5b506102a5610880565b604051808273ffffffffffffffffffffffffffffffffffffffff1673ffffffffffffffffffffffffffffffffffffffff16815260200191505060405180910390f35b3480156102f357600080fd5b506103366004803603602081101561030a57600080fd5b81019080803573ffffffffffffffffffffffffffffffffffffffff1690602001909291905050506108a6565b6040518082815260200191505060405180910390f35b34801561035857600080fd5b5061039b6004803603602081101561036f57600080fd5b81019080803573ffffffffffffffffffffffffffffffffffffffff1690602001909291905050506108be565b005b3480156103a957600080fd5b506103b2610c98565b005b3480156103c057600080fd5b506103c9610e2c565b6040518082815260200191505060405180910390f35b3480156103eb57600080fd5b506103f4610e32565b6040518082815260200191505060405180910390f35b34801561041657600080fd5b5061041f610e38565b604051808273ffffffffffffffffffffffffffffffffffffffff1673ffffffffffffffffffffffffffffffffffffffff16815260200191505060405180910390f35b34801561046d57600080fd5b50610476610e5e565b604051808273ffffffffffffffffffffffffffffffffffffffff1673ffffffffffffffffffffffffffffffffffffffff16815260200191505060405180910390f35b6104fa600480360360208110156104ce57600080fd5b81019080803573ffffffffffffffffffffffffffffffffffffffff169060200190929190505050610e83565b6040518082815260200191505060405180910390f35b34801561051c57600080fd5b50610525611329565b6040518082815260200191505060405180910390f35b34801561054757600080fd5b5061055061132f565b6040518082815260200191505060405180910390f35b34801561057257600080fd5b5061057b611335565b6040518082600481111561058b57fe5b60ff16815260200191505060405180910390f35b3480156105ab57600080fd5b506105b4611348565b604051808260048111156105c457fe5b60ff16815260200191505060405180910390f35b3480156105e457600080fd5b506105ed611414565b6040518082815260200191505060405180910390f35b34801561060f57600080fd5b5061061861141a565b6040518082815260200191505060405180910390f35b34801561063a57600080fd5b50610643611546565b6040518082815260200191505060405180910390f35b34801561066557600080fd5b506106a86004803603602081101561067c57600080fd5b81019080803573ffffffffffffffffffffffffffffffffffffffff169060200190929190505050611567565b005b3480156106b657600080fd5b506106bf611905565b6040518082815260200191505060405180910390f35b6000670de0b6b3a7640000600183816106ea57fe5b04029050919050565b600a81565b60075481565b600160009054906101000a900473ffffffffffffffffffffffffffffffffffffffff1673ffffffffffffffffffffffffffffffffffffffff163373ffffffffffffffffffffffffffffffffffffffff16146107c1576040517f08c379a000000000000000000000000000000000000000000000000000000000815260040180806020018281038252600b8152602001807f77616c6c6574206f6e6c7900000000000000000000000000000000000000000081525060200191505060405180910390fd5b60018060048111156107cf57fe5b600b60009054906101000a900460ff1660048111156107ea57fe5b1461085d576040517f08c379a000000000000000000000000000000000000000000000000000000000815260040180806020018281038252600b8152602001807f77726f6e6720737461676500000000000000000000000000000000000000000081525060200191505060405180910390fd5b8260038190555081600481905550505050565b6000600354905090565b60055481565b600160009054906101000a900473ffffffffffffffffffffffffffffffffffffffff1681565b600a6020528060005260406000206000915090505481565b600260009054906101000a900473ffffffffffffffffffffffffffffffffffffffff1673ffffffffffffffffffffffffffffffffffffffff163373ffffffffffffffffffffffffffffffffffffffff1614610981576040517f08c379a000000000000000000000000000000000000000000000000000000000815260040180806020018281038252600a8152602001807f6f776e6572206f6e6c790000000000000000000000000000000000000000000081525060200191505060405180910390fd5b600080600481111561098f57fe5b600b60009054906101000a900460ff1660048111156109aa57fe5b14610a1d576040517f08c379a000000000000000000000000000000000000000000000000000000000815260040180806020018281038252600b8152602001807f77726f6e6720737461676500000000000000000000000000000000000000000081525060200191505060405180910390fd5b600073ffffffffffffffffffffffffffffffffffffffff168273ffffffffffffffffffffffffffffffffffffffff161415610ac0576040517f08c379a000000000000000000000000000000000000000000000000000000000815260040180806020018281038252601a8152602001807f676f6c6420746f6b656e2061646472657373206973206e756c6c00000000000081525060200191505060405180910390fd5b816000806101000a81548173ffffffffffffffffffffffffffffffffffffffff021916908373ffffffffffffffffffffffffffffffffffffffff160217905550600a6000809054906101000a900473ffffffffffffffffffffffffffffffffffffffff1673ffffffffffffffffffffffffffffffffffffffff166370a08231600160009054906101000a900473ffffffffffffffffffffffffffffffffffffffff166040518263ffffffff1660e01b8152600401808273ffffffffffffffffffffffffffffffffffffffff1673ffffffffffffffffffffffffffffffffffffffff16815260200191505060206040518083038186803b158015610bc257600080fd5b505afa158015610bd6573d6000803e3d6000fd5b505050506040513d6020811015610bec57600080fd5b810190808051906020019092919050505014610c70576040517f08c379a00000000000000000000000000000000000000000000000000000000081526004018080602001828103825260158152602001807f696e76616c696420746f6b656e2062616c616e6365000000000000000000000081525060200191505060405180910390fd5b6001600b60006101000a81548160ff02191690836004811115610c8f57fe5b02179055505050565b600160009054906101000a900473ffffffffffffffffffffffffffffffffffffffff1673ffffffffffffffffffffffffffffffffffffffff163373ffffffffffffffffffffffffffffffffffffffff1614610d5b576040517f08c379a000000000000000000000000000000000000000000000000000000000815260040180806020018281038252600b8152602001807f77616c6c6574206f6e6c7900000000000000000000000000000000000000000081525060200191505060405180910390fd5b6001806004811115610d6957fe5b600b60009054906101000a900460ff166004811115610d8457fe5b14610df7576040517f08c379a000000000000000000000000000000000000000000000000000000000815260040180806020018281038252600b8152602001807f77726f6e6720737461676500000000000000000000000000000000000000000081525060200191505060405180910390fd5b6002600b60006101000a81548160ff02191690836004811115610e1657fe5b0217905550436005819055504260068190555050565b6104b081565b60065481565b600260009054906101000a900473ffffffffffffffffffffffffffffffffffffffff1681565b6000809054906101000a900473ffffffffffffffffffffffffffffffffffffffff1681565b60006004600036905014158015610e9f57506024600036905014155b15610f12576040517f08c379a00000000000000000000000000000000000000000000000000000000081526004018080602001828103825260118152602001807f6e6f742076616c6964207061796c6f616400000000000000000000000000000081525060200191505060405180910390fd5b60026004811115610f1f57fe5b600b60009054906101000a900460ff166004811115610f3a57fe5b148015610f555750610f4a611546565b610f52610870565b11155b15610f6357610f6261190b565b5b60036004811115610f7057fe5b600b60009054906101000a900460ff166004811115610f8b57fe5b148015610f9d57506104b06007540142115b15610fc7576004600b60006101000a81548160ff02191690836004811115610fc157fe5b02179055505b6002806004811115610fd557fe5b600b60009054906101000a900460ff166004811115610ff057fe5b14611063576040517f08c379a000000000000000000000000000000000000000000000000000000000815260040180806020018281038252600b8152602001807f77726f6e6720737461676500000000000000000000000000000000000000000081525060200191505060405180910390fd5b600073ffffffffffffffffffffffffffffffffffffffff168373ffffffffffffffffffffffffffffffffffffffff16141561109c573392505b34915060006008546110ac610870565b670de0b6b3a7640000600a816110be57fe5b04020390506000600854600354039050818110156110da578091505b8184111561118f578193508473ffffffffffffffffffffffffffffffffffffffff166108fc8534039081150290604051600060405180830381858888f1935050505061118e576040517f08c379a000000000000000000000000000000000000000000000000000000000815260040180806020018281038252600f8152602001807f73656e64696e67206661696c656431000000000000000000000000000000000081525060200191505060405180910390fd5b5b60008414806111f25750600160009054906101000a900473ffffffffffffffffffffffffffffffffffffffff1673ffffffffffffffffffffffffffffffffffffffff166108fc859081150290604051600060405180830381858888f19350505050155b15611265576040517f08c379a000000000000000000000000000000000000000000000000000000000815260040180806020018281038252600f8152602001807f73656e64696e67206661696c656432000000000000000000000000000000000081525060200191505060405180910390fd5b83600a60008773ffffffffffffffffffffffffffffffffffffffff1673ffffffffffffffffffffffffffffffffffffffff1681526020019081526020016000206000828254019250508190555083600860008282540192505081905550838214156112d3576112d261190b565b5b8473ffffffffffffffffffffffffffffffffffffffff167f9c89e828e6cee6374b68147c9e753e41746aad98ba255a527a4fc0ac1868bff9856040518082815260200191505060405180910390a2505050919050565b60085481565b60095481565b600b60009054906101000a900460ff1681565b60006002600481111561135757fe5b600b60009054906101000a900460ff16600481111561137257fe5b14801561138d5750611382611546565b61138a610870565b11155b1561139b5761139a61190b565b5b600360048111156113a857fe5b600b60009054906101000a900460ff1660048111156113c357fe5b1480156113d557506104b06007540142115b156113ff576004600b60006101000a81548160ff021916908360048111156113f957fe5b02179055505b600b60009054906101000a900460ff16905090565b60035481565b60006002600481111561142957fe5b600b60009054906101000a900460ff16600481111561144457fe5b14801561145f5750611454611546565b61145c610870565b11155b1561146d5761146c61190b565b5b6003600481111561147a57fe5b600b60009054906101000a900460ff16600481111561149557fe5b1480156114a757506104b06007540142115b156114d1576004600b60006101000a81548160ff021916908360048111156114cb57fe5b02179055505b600360048111156114de57fe5b600b60009054906101000a900460ff1660048111156114f957fe5b1480611529575060048081111561150c57fe5b600b60009054906101000a900460ff16600481111561152757fe5b145b15611538576009549050611543565b611540610870565b90505b90565b60006001600a670de0b6b3a7640000600854028161156057fe5b0401905090565b600460003690501415801561158157506024600036905014155b156115f4576040517f08c379a00000000000000000000000000000000000000000000000000000000081526004018080602001828103825260118152602001807f6e6f742076616c6964207061796c6f616400000000000000000000000000000081525060200191505060405180910390fd5b6002600481111561160157fe5b600b60009054906101000a900460ff16600481111561161c57fe5b148015611637575061162c611546565b611634610870565b11155b156116455761164461190b565b5b6003600481111561165257fe5b600b60009054906101000a900460ff16600481111561166d57fe5b14801561167f57506104b06007540142115b156116a9576004600b60006101000a81548160ff021916908360048111156116a357fe5b02179055505b60048060048111156116b757fe5b600b60009054906101000a900460ff1660048111156116d257fe5b14611745576040517f08c379a000000000000000000000000000000000000000000000000000000000815260040180806020018281038252600b8152602001807f77726f6e6720737461676500000000000000000000000000000000000000000081525060200191505060405180910390fd5b600073ffffffffffffffffffffffffffffffffffffffff168273ffffffffffffffffffffffffffffffffffffffff16141561177e573391505b6000600954670de0b6b3a7640000600a60008673ffffffffffffffffffffffffffffffffffffffff1673ffffffffffffffffffffffffffffffffffffffff1681526020019081526020016000205402816117d457fe5b0490506000600a60008573ffffffffffffffffffffffffffffffffffffffff1673ffffffffffffffffffffffffffffffffffffffff168152602001908152602001600020819055506000809054906101000a900473ffffffffffffffffffffffffffffffffffffffff1673ffffffffffffffffffffffffffffffffffffffff1663a9059cbb84836040518363ffffffff1660e01b8152600401808373ffffffffffffffffffffffffffffffffffffffff1673ffffffffffffffffffffffffffffffffffffffff16815260200182815260200192505050602060405180830381600087803b1580156118c457600080fd5b505af11580156118d8573d6000803e3d6000fd5b505050506040513d60208110156118ee57600080fd5b810190808051906020019092919050505050505050565b60045481565b6003600b60006101000a81548160ff0219169083600481111561192a57fe5b0217905550600354600854141561194e57611943610870565b60098190555061195d565b611956611546565b6009819055505b6000600954670de0b6b3a7640000600854028161197657fe5b0490506000809054906101000a900473ffffffffffffffffffffffffffffffffffffffff1673ffffffffffffffffffffffffffffffffffffffff1663a9059cbb600160009054906101000a900473ffffffffffffffffffffffffffffffffffffffff1683600a036040518363ffffffff1660e01b8152600401808373ffffffffffffffffffffffffffffffffffffffff1673ffffffffffffffffffffffffffffffffffffffff16815260200182815260200192505050602060405180830381600087803b158015611a4657600080fd5b505af1158015611a5a573d6000803e3d6000fd5b505050506040513d6020811015611a7057600080fd5b810190808051906020019092919050505050426007819055505056fea264697066735822122001aec9a46e773df2300c21d4f7a89f2bc935613bb981f2d0fc73ad6ced67062d64736f6c63430006080033",
  "immutableReferences": {},
  "source": "pragma solidity ^0.6.0;\r\nimport \"./GLDToken.sol\";\r\n\r\ncontract DutchAuction {\r\n  //events\r\n  event BidSubmission(address indexed sender, uint256 amount);\r\n  \r\n  //constant\r\n  uint constant public MAX_TOKENS_SOLD = 10 /* 10**18*/; // 10 Tokens\r\n  uint constant public WAITING_PERIOD = 20 minutes;\r\n\r\n  GLDToken public gldToken;\r\n  address payable public wallet; // tokens seller\r\n  address public owner;\r\n  uint public startingPrice; // starting price --> how much in total that was planned to earn\r\n  uint public priceFactor; // decrease rate\r\n  uint public startBlock;\r\n  uint public startTime;\r\n  uint public endTime;\r\n  uint public totalReceived;\r\n  uint public finalPrice;\r\n  mapping (address => uint) public bids;\r\n  Stages public stage; //current stage\r\n\r\n  enum Stages {\r\n      AuctionDeployed,\r\n      AuctionSetUp,\r\n      AuctionStarted,\r\n      AuctionEnded,\r\n      TradingStarted\r\n  }\r\n\r\n  //modifiers\r\n  modifier atStage(Stages _stage) {\r\n      if (stage != _stage)\r\n          // Contract not in expected state\r\n          revert(\"wrong stage\");\r\n      _;\r\n  }\r\n\r\n  modifier isOwner() {\r\n      if (msg.sender != owner)\r\n          // Only owner is allowed to proceed\r\n          revert(\"owner only\");\r\n      _;\r\n  }\r\n\r\n  modifier isWallet() {\r\n      if (msg.sender != wallet)\r\n          // Only wallet is allowed to proceed\r\n          revert(\"wallet only\");\r\n      _;\r\n  }\r\n\r\n  modifier isValidPayload() {\r\n      if (msg.data.length != 4 && msg.data.length != 36)\r\n          revert(\"not valid payload\");\r\n      _;\r\n  }\r\n\r\n  modifier timedTransitions() {\r\n      if (stage == Stages.AuctionStarted && calcTokenPrice() <= calcStopPrice())\r\n          finalizeAuction();\r\n      if (stage == Stages.AuctionEnded && now > endTime + WAITING_PERIOD)\r\n          stage = Stages.TradingStarted;\r\n      _;\r\n  }\r\n\r\n  //functions\r\n  /// @dev Contract constructor function sets owner.\r\n  /// @param _wallet Gnosis GLDTokens wallet.\r\n  /// @param _startingPrice Auction starting price.\r\n  /// @param _priceFactor Auction price factor.\r\n  constructor(address payable _wallet, uint _startingPrice, uint _priceFactor)\r\n      public\r\n  {\r\n      if (_wallet == address(0x0) || _startingPrice == 0 || _priceFactor == 0)\r\n          // Arguments are null.\r\n          revert(\"constructor args null\");\r\n      owner = msg.sender;\r\n      wallet = _wallet;\r\n      startingPrice = _startingPrice;\r\n      priceFactor = _priceFactor;\r\n      stage = Stages.AuctionDeployed;\r\n  }\r\n\r\n  /// @dev Setup function sets external contracts' addresses.\r\n  /// @param _gldToken Gnosis gldToken address.\r\n  function setup(address _gldToken)\r\n      public\r\n      isOwner\r\n      atStage(Stages.AuctionDeployed)\r\n  {\r\n      if (_gldToken == address(0x0))\r\n          // Argument is null.\r\n          revert(\"gold token address is null\");\r\n      gldToken = GLDToken(_gldToken);\r\n      // Validate token balance\r\n      if (gldToken.balanceOf(wallet) != MAX_TOKENS_SOLD) \r\n          revert(\"invalid token balance\");\r\n      stage = Stages.AuctionSetUp;\r\n  }\r\n\r\n  /// @dev Starts auction and sets startBlock.\r\n  function startAuction()\r\n      public\r\n      isWallet\r\n      atStage(Stages.AuctionSetUp)\r\n  {\r\n      stage = Stages.AuctionStarted;\r\n      startBlock = block.number;\r\n      startTime = now;\r\n      //should i put a start time here?\r\n  }\r\n\r\n  /// @dev Changes auction starting price and start price factor before auction is started.\r\n  /// @param _startingPrice Updated auction startingPrice.\r\n  /// @param _priceFactor Updated start price factor.\r\n  function changeSettings(uint _startingPrice, uint _priceFactor)\r\n      public\r\n      isWallet\r\n      atStage(Stages.AuctionSetUp)\r\n  {\r\n      startingPrice = _startingPrice;\r\n      priceFactor = _priceFactor;\r\n  }\r\n\r\n  /// @dev Calculates current token price.\r\n  /// @return Returns token price.\r\n  function calcCurrentTokenPrice()\r\n      public\r\n      timedTransitions\r\n      returns (uint)\r\n  {\r\n      if (stage == Stages.AuctionEnded || stage == Stages.TradingStarted)\r\n          return finalPrice;\r\n      return calcTokenPrice();\r\n  }\r\n\r\n  /// @dev Returns correct stage, even if a function with timedTransitions modifier has not yet been called yet.\r\n  /// @return Returns current auction stage.\r\n  function updateStage()\r\n      public\r\n      timedTransitions\r\n      returns (Stages)\r\n  {\r\n      return stage;\r\n  }\r\n\r\n  /// @dev Allows to send a bid to the auction.\r\n  /// @param receiver Bid will be assigned to this address if set.\r\n  function bid(address payable receiver)\r\n      public\r\n      payable\r\n      isValidPayload\r\n      timedTransitions\r\n      atStage(Stages.AuctionStarted)\r\n      returns (uint amount)\r\n  {\r\n      // If a bid is done on behalf of a user via ShapeShift, the receiver address is set.\r\n      if (receiver == address(0x0))\r\n          receiver = msg.sender;\r\n      amount = msg.value;\r\n      // Prevent that more than 90% of tokens are sold. Only relevant if cap not reached.\r\n      uint maxWei = (MAX_TOKENS_SOLD / 10**18) * calcTokenPrice() - totalReceived; // calculate how much is need to earn\r\n      uint maxWeiBasedOnTotalReceived = startingPrice - totalReceived; // if total received is not zero --> got previous bids\r\n      if (maxWeiBasedOnTotalReceived < maxWei)\r\n          maxWei = maxWeiBasedOnTotalReceived;\r\n      // Only invest maximum possible amount.\r\n      if (amount > maxWei) {\r\n          amount = maxWei;\r\n          // Send change back to receiver address. In case of a ShapeShift bid the user receives the change back directly.\r\n          if (!receiver.send(msg.value - amount))\r\n              // Sending failed\r\n              revert(\"sending failed1\");\r\n      }\r\n      // Forward funding to ether wallet\r\n      if (amount == 0 || !wallet.send(amount))\r\n          // No amount sent or sending failed\r\n          revert(\"sending failed2\");\r\n      bids[receiver] += amount; // remember the claim of each participant\r\n      totalReceived += amount; // amount of money earned\r\n      if (maxWei == amount)\r\n          // When maxWei is equal to the big amount the auction is ended and finalizeAuction is triggered.\r\n          finalizeAuction();\r\n      BidSubmission(receiver, amount);\r\n  }\r\n\r\n  /// @dev Claims tokens for bidder after auction.\r\n  /// @param receiver Tokens will be assigned to this address if set.\r\n  function claimTokens(address receiver)\r\n      public\r\n      isValidPayload\r\n      timedTransitions\r\n      atStage(Stages.TradingStarted)\r\n  {\r\n      if (receiver == address(0x0))\r\n          receiver = msg.sender;\r\n      uint tokenCount = bids[receiver] * 10**18 / finalPrice;\r\n      bids[receiver] = 0;\r\n      gldToken.transfer(receiver, tokenCount);\r\n  }\r\n\r\n  /// @dev Calculates stop price.\r\n  /// @return Returns stop price.\r\n  function calcStopPrice()\r\n      view\r\n      public\r\n      returns (uint)\r\n  {\r\n      return totalReceived * 10**18 / MAX_TOKENS_SOLD + 1;\r\n  }\r\n\r\n  /// @dev Calculates token price.\r\n  /// @return Returns token price.\r\n  function calcTokenPrice() //shouldn't price drop with time?\r\n      view\r\n      public\r\n      returns (uint)\r\n  {\r\n      //return priceFactor * 10**18 / (block.number - startBlock + 7500) + 1;\r\n      //return startingPrice - priceFactor /**10**18 +1*/; \r\n      return startingPrice;\r\n  }\r\n  \r\n  // private function\r\n  function finalizeAuction()\r\n      private\r\n  {\r\n      stage = Stages.AuctionEnded;\r\n      if (totalReceived == startingPrice) // if total money received is still at the starting price\r\n          finalPrice = calcTokenPrice();\r\n      else\r\n          finalPrice = calcStopPrice();\r\n      uint soldTokens = totalReceived * 10**18 / finalPrice;\r\n      // Auction contract transfers all unsold tokens to Gnosis inventory multisig\r\n      gldToken.transfer(wallet, MAX_TOKENS_SOLD - soldTokens);\r\n      endTime = now;\r\n  }\r\n\r\n  function toViewablePrice(uint longPrice)\r\n      public\r\n      returns(uint viewablePrice)\r\n  {\r\n    viewablePrice = longPrice / 1*10**18; // not accurate\r\n  }\r\n}",
  "sourcePath": "D:/Documents(D)/Computer Science Year 3 Sem 1/CZ4153 Blockchain Technology/Project/DutchAuction/backend/contracts/DutchAuction.sol",
  "compiler": {
    "name": "solc",
    "version": "0.6.8+commit.0bbfe453.Emscripten.clang"
  },
  "schemaVersion": "3.3.1",
  "updatedAt": "2020-10-31T09:43:43.691Z",
  "networkType": "ethereum",
  "devdoc": {
    "methods": {
      "bid(address)": {
        "details": "Allows to send a bid to the auction.",
        "params": {
          "receiver": "Bid will be assigned to this address if set."
        }
      },
      "calcCurrentTokenPrice()": {
        "details": "Calculates current token price.",
        "returns": {
          "_0": "Returns token price."
        }
      },
      "calcStopPrice()": {
        "details": "Calculates stop price.",
        "returns": {
          "_0": "Returns stop price."
        }
      },
      "calcTokenPrice()": {
        "details": "Calculates token price.",
        "returns": {
          "_0": "Returns token price."
        }
      },
      "changeSettings(uint256,uint256)": {
        "details": "Changes auction starting price and start price factor before auction is started.",
        "params": {
          "_priceFactor": "Updated start price factor.",
          "_startingPrice": "Updated auction startingPrice."
        }
      },
      "claimTokens(address)": {
        "details": "Claims tokens for bidder after auction.",
        "params": {
          "receiver": "Tokens will be assigned to this address if set."
        }
      },
      "constructor": {
        "details": "Contract constructor function sets owner.",
        "params": {
          "_priceFactor": "Auction price factor.",
          "_startingPrice": "Auction starting price.",
          "_wallet": "Gnosis GLDTokens wallet."
        }
      },
      "setup(address)": {
        "details": "Setup function sets external contracts' addresses.",
        "params": {
          "_gldToken": "Gnosis gldToken address."
        }
      },
      "startAuction()": {
        "details": "Starts auction and sets startBlock."
      },
      "updateStage()": {
        "details": "Returns correct stage, even if a function with timedTransitions modifier has not yet been called yet.",
        "returns": {
          "_0": "Returns current auction stage."
        }
      }
    }
  },
  "userdoc": {
    "methods": {}
  }
}