{
  "contractName": "DutchAuction",
  "abi": [
    {
      "inputs": [
        {
          "internalType": "address payable",
          "name": "_wallet",
          "type": "address"
        },
        {
          "internalType": "uint256",
          "name": "_startingPrice",
          "type": "uint256"
        },
        {
          "internalType": "uint256",
          "name": "_priceFactor",
          "type": "uint256"
        }
      ],
      "stateMutability": "nonpayable",
      "type": "constructor"
    },
    {
      "anonymous": false,
      "inputs": [
        {
          "indexed": true,
          "internalType": "address",
          "name": "sender",
          "type": "address"
        },
        {
          "indexed": false,
          "internalType": "uint256",
          "name": "amount",
          "type": "uint256"
        }
      ],
      "name": "BidSubmission",
      "type": "event"
    },
    {
      "inputs": [],
      "name": "MAX_TOKENS_SOLD",
      "outputs": [
        {
          "internalType": "uint256",
          "name": "",
          "type": "uint256"
        }
      ],
      "stateMutability": "view",
      "type": "function"
    },
    {
      "inputs": [],
      "name": "WAITING_PERIOD",
      "outputs": [
        {
          "internalType": "uint256",
          "name": "",
          "type": "uint256"
        }
      ],
      "stateMutability": "view",
      "type": "function"
    },
    {
      "inputs": [
        {
          "internalType": "address",
          "name": "",
          "type": "address"
        }
      ],
      "name": "bids",
      "outputs": [
        {
          "internalType": "uint256",
          "name": "",
          "type": "uint256"
        }
      ],
      "stateMutability": "view",
      "type": "function"
    },
    {
      "inputs": [],
      "name": "endTime",
      "outputs": [
        {
          "internalType": "uint256",
          "name": "",
          "type": "uint256"
        }
      ],
      "stateMutability": "view",
      "type": "function"
    },
    {
      "inputs": [],
      "name": "finalPrice",
      "outputs": [
        {
          "internalType": "uint256",
          "name": "",
          "type": "uint256"
        }
      ],
      "stateMutability": "view",
      "type": "function"
    },
    {
      "inputs": [],
      "name": "gldToken",
      "outputs": [
        {
          "internalType": "contract GLDToken",
          "name": "",
          "type": "address"
        }
      ],
      "stateMutability": "view",
      "type": "function"
    },
    {
      "inputs": [],
      "name": "owner",
      "outputs": [
        {
          "internalType": "address",
          "name": "",
          "type": "address"
        }
      ],
      "stateMutability": "view",
      "type": "function"
    },
    {
      "inputs": [],
      "name": "priceFactor",
      "outputs": [
        {
          "internalType": "uint256",
          "name": "",
          "type": "uint256"
        }
      ],
      "stateMutability": "view",
      "type": "function"
    },
    {
      "inputs": [],
      "name": "stage",
      "outputs": [
        {
          "internalType": "enum DutchAuction.Stages",
          "name": "",
          "type": "uint8"
        }
      ],
      "stateMutability": "view",
      "type": "function"
    },
    {
      "inputs": [],
      "name": "startBlock",
      "outputs": [
        {
          "internalType": "uint256",
          "name": "",
          "type": "uint256"
        }
      ],
      "stateMutability": "view",
      "type": "function"
    },
    {
      "inputs": [],
      "name": "startingPrice",
      "outputs": [
        {
          "internalType": "uint256",
          "name": "",
          "type": "uint256"
        }
      ],
      "stateMutability": "view",
      "type": "function"
    },
    {
      "inputs": [],
      "name": "totalReceived",
      "outputs": [
        {
          "internalType": "uint256",
          "name": "",
          "type": "uint256"
        }
      ],
      "stateMutability": "view",
      "type": "function"
    },
    {
      "inputs": [],
      "name": "wallet",
      "outputs": [
        {
          "internalType": "address payable",
          "name": "",
          "type": "address"
        }
      ],
      "stateMutability": "view",
      "type": "function"
    },
    {
      "inputs": [
        {
          "internalType": "address",
          "name": "_gldToken",
          "type": "address"
        }
      ],
      "name": "setup",
      "outputs": [],
      "stateMutability": "nonpayable",
      "type": "function"
    },
    {
      "inputs": [],
      "name": "startAuction",
      "outputs": [],
      "stateMutability": "nonpayable",
      "type": "function"
    },
    {
      "inputs": [
        {
          "internalType": "uint256",
          "name": "_startingPrice",
          "type": "uint256"
        },
        {
          "internalType": "uint256",
          "name": "_priceFactor",
          "type": "uint256"
        }
      ],
      "name": "changeSettings",
      "outputs": [],
      "stateMutability": "nonpayable",
      "type": "function"
    },
    {
      "inputs": [],
      "name": "calcCurrentTokenPrice",
      "outputs": [
        {
          "internalType": "uint256",
          "name": "",
          "type": "uint256"
        }
      ],
      "stateMutability": "nonpayable",
      "type": "function"
    },
    {
      "inputs": [],
      "name": "updateStage",
      "outputs": [
        {
          "internalType": "enum DutchAuction.Stages",
          "name": "",
          "type": "uint8"
        }
      ],
      "stateMutability": "nonpayable",
      "type": "function"
    },
    {
      "inputs": [
        {
          "internalType": "address payable",
          "name": "receiver",
          "type": "address"
        }
      ],
      "name": "bid",
      "outputs": [
        {
          "internalType": "uint256",
          "name": "amount",
          "type": "uint256"
        }
      ],
      "stateMutability": "payable",
      "type": "function"
    },
    {
      "inputs": [
        {
          "internalType": "address",
          "name": "receiver",
          "type": "address"
        }
      ],
      "name": "claimTokens",
      "outputs": [],
      "stateMutability": "nonpayable",
      "type": "function"
    },
    {
      "inputs": [],
      "name": "calcStopPrice",
      "outputs": [
        {
          "internalType": "uint256",
          "name": "",
          "type": "uint256"
        }
      ],
      "stateMutability": "view",
      "type": "function"
    },
    {
      "inputs": [],
      "name": "calcTokenPrice",
      "outputs": [
        {
          "internalType": "uint256",
          "name": "",
          "type": "uint256"
        }
      ],
      "stateMutability": "view",
      "type": "function"
    },
    {
      "inputs": [
        {
          "internalType": "uint256",
          "name": "longPrice",
          "type": "uint256"
        }
      ],
      "name": "toViewablePrice",
      "outputs": [
        {
          "internalType": "uint256",
          "name": "viewablePrice",
          "type": "uint256"
        }
      ],
      "stateMutability": "nonpayable",
      "type": "function"
    }
  ],
  "bytecode": "0x608060405234801561001057600080fd5b506040516116533803806116538339818101604052606081101561003357600080fd5b81019080805190602001909291908051906020019092919080519060200190929190505050600073ffffffffffffffffffffffffffffffffffffffff168373ffffffffffffffffffffffffffffffffffffffff1614806100935750600082145b8061009e5750600081145b156100a857600080fd5b33600260006101000a81548173ffffffffffffffffffffffffffffffffffffffff021916908373ffffffffffffffffffffffffffffffffffffffff16021790555082600160006101000a81548173ffffffffffffffffffffffffffffffffffffffff021916908373ffffffffffffffffffffffffffffffffffffffff16021790555081600381905550806004819055506000600a60006101000a81548160ff0219169083600481111561015757fe5b02179055505050506114e58061016e6000396000f3fe6080604052600436106101405760003560e01c80638da5cb5b116100b6578063c062f5781161006f578063c062f57814610569578063d6fbf202146105a2578063d9f8a4e2146105cd578063dd9dd688146105f8578063df8de3e714610623578063dfb2866d1461067457610140565b80638da5cb5b146103d45780639939b8b21461042b5780639cf5453d14610482578063a3c2c462146104da578063a6b513ee14610505578063c040e6b81461053057610140565b806348cd4cb11161010857806348cd4cb11461025a578063521eb2731461028557806362ea82db146102dc57806366d38203146103415780636b64c769146103925780636f85c7e4146103a957610140565b806315a3b3121461014557806317f5de95146101945780633197cbb6146101bf57806336d02c94146101ea57806339f64b521461022f575b600080fd5b34801561015157600080fd5b5061017e6004803603602081101561016857600080fd5b810190808035906020019092919050505061069f565b6040518082815260200191505060405180910390f35b3480156101a057600080fd5b506101a96106bd565b6040518082815260200191505060405180910390f35b3480156101cb57600080fd5b506101d46106ca565b6040518082815260200191505060405180910390f35b3480156101f657600080fd5b5061022d6004803603604081101561020d57600080fd5b8101908080359060200190929190803590602001909291905050506106d0565b005b34801561023b57600080fd5b50610244610770565b6040518082815260200191505060405180910390f35b34801561026657600080fd5b5061026f610798565b6040518082815260200191505060405180910390f35b34801561029157600080fd5b5061029a61079e565b604051808273ffffffffffffffffffffffffffffffffffffffff1673ffffffffffffffffffffffffffffffffffffffff16815260200191505060405180910390f35b3480156102e857600080fd5b5061032b600480360360208110156102ff57600080fd5b81019080803573ffffffffffffffffffffffffffffffffffffffff1690602001909291905050506107c4565b6040518082815260200191505060405180910390f35b34801561034d57600080fd5b506103906004803603602081101561036457600080fd5b81019080803573ffffffffffffffffffffffffffffffffffffffff1690602001909291905050506107dc565b005b34801561039e57600080fd5b506103a76109f8565b005b3480156103b557600080fd5b506103be610ab3565b6040518082815260200191505060405180910390f35b3480156103e057600080fd5b506103e9610ab9565b604051808273ffffffffffffffffffffffffffffffffffffffff1673ffffffffffffffffffffffffffffffffffffffff16815260200191505060405180910390f35b34801561043757600080fd5b50610440610adf565b604051808273ffffffffffffffffffffffffffffffffffffffff1673ffffffffffffffffffffffffffffffffffffffff16815260200191505060405180910390f35b6104c46004803603602081101561049857600080fd5b81019080803573ffffffffffffffffffffffffffffffffffffffff169060200190929190505050610b04565b6040518082815260200191505060405180910390f35b3480156104e657600080fd5b506104ef610e0e565b6040518082815260200191505060405180910390f35b34801561051157600080fd5b5061051a610e14565b6040518082815260200191505060405180910390f35b34801561053c57600080fd5b50610545610e1a565b6040518082600481111561055557fe5b60ff16815260200191505060405180910390f35b34801561057557600080fd5b5061057e610e2d565b6040518082600481111561058e57fe5b60ff16815260200191505060405180910390f35b3480156105ae57600080fd5b506105b7610ef9565b6040518082815260200191505060405180910390f35b3480156105d957600080fd5b506105e2610eff565b6040518082815260200191505060405180910390f35b34801561060457600080fd5b5061060d61102b565b6040518082815260200191505060405180910390f35b34801561062f57600080fd5b506106726004803603602081101561064657600080fd5b81019080803573ffffffffffffffffffffffffffffffffffffffff169060200190929190505050611054565b005b34801561068057600080fd5b50610689611320565b6040518082815260200191505060405180910390f35b6000670de0b6b3a7640000600183816106b457fe5b04029050919050565b68056bc75e2d6310000081565b60065481565b600160009054906101000a900473ffffffffffffffffffffffffffffffffffffffff1673ffffffffffffffffffffffffffffffffffffffff163373ffffffffffffffffffffffffffffffffffffffff161461072a57600080fd5b600180600481111561073857fe5b600a60009054906101000a900460ff16600481111561075357fe5b1461075d57600080fd5b8260038190555081600481905550505050565b60006001611d4c600554430301670de0b6b3a7640000600454028161079157fe5b0401905090565b60055481565b600160009054906101000a900473ffffffffffffffffffffffffffffffffffffffff1681565b60096020528060005260406000206000915090505481565b600260009054906101000a900473ffffffffffffffffffffffffffffffffffffffff1673ffffffffffffffffffffffffffffffffffffffff163373ffffffffffffffffffffffffffffffffffffffff161461083657600080fd5b600080600481111561084457fe5b600a60009054906101000a900460ff16600481111561085f57fe5b1461086957600080fd5b600073ffffffffffffffffffffffffffffffffffffffff168273ffffffffffffffffffffffffffffffffffffffff1614156108a357600080fd5b816000806101000a81548173ffffffffffffffffffffffffffffffffffffffff021916908373ffffffffffffffffffffffffffffffffffffffff16021790555068056bc75e2d631000006000809054906101000a900473ffffffffffffffffffffffffffffffffffffffff1673ffffffffffffffffffffffffffffffffffffffff166370a08231306040518263ffffffff1660e01b8152600401808273ffffffffffffffffffffffffffffffffffffffff1673ffffffffffffffffffffffffffffffffffffffff16815260200191505060206040518083038186803b15801561098b57600080fd5b505afa15801561099f573d6000803e3d6000fd5b505050506040513d60208110156109b557600080fd5b8101908080519060200190929190505050146109d057600080fd5b6001600a60006101000a81548160ff021916908360048111156109ef57fe5b02179055505050565b600160009054906101000a900473ffffffffffffffffffffffffffffffffffffffff1673ffffffffffffffffffffffffffffffffffffffff163373ffffffffffffffffffffffffffffffffffffffff1614610a5257600080fd5b6001806004811115610a6057fe5b600a60009054906101000a900460ff166004811115610a7b57fe5b14610a8557600080fd5b6002600a60006101000a81548160ff02191690836004811115610aa457fe5b02179055504360058190555050565b6104b081565b600260009054906101000a900473ffffffffffffffffffffffffffffffffffffffff1681565b6000809054906101000a900473ffffffffffffffffffffffffffffffffffffffff1681565b60006004600036905014158015610b2057506024600036905014155b15610b2a57600080fd5b60026004811115610b3757fe5b600a60009054906101000a900460ff166004811115610b5257fe5b148015610b6d5750610b6261102b565b610b6a610770565b11155b15610b7b57610b7a611326565b5b60036004811115610b8857fe5b600a60009054906101000a900460ff166004811115610ba357fe5b148015610bb557506104b06006540142115b15610bdf576004600a60006101000a81548160ff02191690836004811115610bd957fe5b02179055505b6002806004811115610bed57fe5b600a60009054906101000a900460ff166004811115610c0857fe5b14610c1257600080fd5b600073ffffffffffffffffffffffffffffffffffffffff168373ffffffffffffffffffffffffffffffffffffffff161415610c4b573392505b3491506000600754610c5b610770565b670de0b6b3a764000068056bc75e2d6310000081610c7557fe5b0402039050600060075460035403905081811015610c91578091505b81841115610cdd578193508473ffffffffffffffffffffffffffffffffffffffff166108fc8534039081150290604051600060405180830381858888f19350505050610cdc57600080fd5b5b6000841480610d405750600160009054906101000a900473ffffffffffffffffffffffffffffffffffffffff1673ffffffffffffffffffffffffffffffffffffffff166108fc859081150290604051600060405180830381858888f19350505050155b15610d4a57600080fd5b83600960008773ffffffffffffffffffffffffffffffffffffffff1673ffffffffffffffffffffffffffffffffffffffff168152602001908152602001600020600082825401925050819055508360076000828254019250508190555083821415610db857610db7611326565b5b8473ffffffffffffffffffffffffffffffffffffffff167f9c89e828e6cee6374b68147c9e753e41746aad98ba255a527a4fc0ac1868bff9856040518082815260200191505060405180910390a2505050919050565b60075481565b60085481565b600a60009054906101000a900460ff1681565b600060026004811115610e3c57fe5b600a60009054906101000a900460ff166004811115610e5757fe5b148015610e725750610e6761102b565b610e6f610770565b11155b15610e8057610e7f611326565b5b60036004811115610e8d57fe5b600a60009054906101000a900460ff166004811115610ea857fe5b148015610eba57506104b06006540142115b15610ee4576004600a60006101000a81548160ff02191690836004811115610ede57fe5b02179055505b600a60009054906101000a900460ff16905090565b60035481565b600060026004811115610f0e57fe5b600a60009054906101000a900460ff166004811115610f2957fe5b148015610f445750610f3961102b565b610f41610770565b11155b15610f5257610f51611326565b5b60036004811115610f5f57fe5b600a60009054906101000a900460ff166004811115610f7a57fe5b148015610f8c57506104b06006540142115b15610fb6576004600a60006101000a81548160ff02191690836004811115610fb057fe5b02179055505b60036004811115610fc357fe5b600a60009054906101000a900460ff166004811115610fde57fe5b148061100e5750600480811115610ff157fe5b600a60009054906101000a900460ff16600481111561100c57fe5b145b1561101d576008549050611028565b611025610770565b90505b90565b6000600168056bc75e2d63100000670de0b6b3a7640000600754028161104d57fe5b0401905090565b600460003690501415801561106e57506024600036905014155b1561107857600080fd5b6002600481111561108557fe5b600a60009054906101000a900460ff1660048111156110a057fe5b1480156110bb57506110b061102b565b6110b8610770565b11155b156110c9576110c8611326565b5b600360048111156110d657fe5b600a60009054906101000a900460ff1660048111156110f157fe5b14801561110357506104b06006540142115b1561112d576004600a60006101000a81548160ff0219169083600481111561112757fe5b02179055505b600480600481111561113b57fe5b600a60009054906101000a900460ff16600481111561115657fe5b1461116057600080fd5b600073ffffffffffffffffffffffffffffffffffffffff168273ffffffffffffffffffffffffffffffffffffffff161415611199573391505b6000600854670de0b6b3a7640000600960008673ffffffffffffffffffffffffffffffffffffffff1673ffffffffffffffffffffffffffffffffffffffff1681526020019081526020016000205402816111ef57fe5b0490506000600960008573ffffffffffffffffffffffffffffffffffffffff1673ffffffffffffffffffffffffffffffffffffffff168152602001908152602001600020819055506000809054906101000a900473ffffffffffffffffffffffffffffffffffffffff1673ffffffffffffffffffffffffffffffffffffffff1663a9059cbb84836040518363ffffffff1660e01b8152600401808373ffffffffffffffffffffffffffffffffffffffff1673ffffffffffffffffffffffffffffffffffffffff16815260200182815260200192505050602060405180830381600087803b1580156112df57600080fd5b505af11580156112f3573d6000803e3d6000fd5b505050506040513d602081101561130957600080fd5b810190808051906020019092919050505050505050565b60045481565b6003600a60006101000a81548160ff0219169083600481111561134557fe5b021790555060035460075414156113695761135e610770565b600881905550611378565b61137161102b565b6008819055505b6000600854670de0b6b3a7640000600754028161139157fe5b0490506000809054906101000a900473ffffffffffffffffffffffffffffffffffffffff1673ffffffffffffffffffffffffffffffffffffffff1663a9059cbb600160009054906101000a900473ffffffffffffffffffffffffffffffffffffffff168368056bc75e2d63100000036040518363ffffffff1660e01b8152600401808373ffffffffffffffffffffffffffffffffffffffff1673ffffffffffffffffffffffffffffffffffffffff16815260200182815260200192505050602060405180830381600087803b15801561146957600080fd5b505af115801561147d573d6000803e3d6000fd5b505050506040513d602081101561149357600080fd5b810190808051906020019092919050505050426006819055505056fea2646970667358221220a753d4b1a5dfccedb855ca625b6789ab50656accd71a827b4d8b393f17b870e164736f6c63430006080033",
  "immutableReferences": {},
  "source": "pragma solidity ^0.6.0;\r\nimport \"./GLDToken.sol\";\r\n\r\ncontract DutchAuction {\r\n  //events\r\n  event BidSubmission(address indexed sender, uint256 amount);\r\n  \r\n  //constant\r\n  uint constant public MAX_TOKENS_SOLD = 100 * 10**18; // 100 Tokens\r\n  uint constant public WAITING_PERIOD = 20 minutes;\r\n\r\n  GLDToken public gldToken;\r\n  address payable public wallet; // tokens seller\r\n  address public owner;\r\n  uint public startingPrice; // starting price --> how much in total that was planned to earn\r\n  uint public priceFactor; // decrease rate\r\n  uint public startBlock;\r\n  uint public endTime;\r\n  uint public totalReceived;\r\n  uint public finalPrice;\r\n  mapping (address => uint) public bids;\r\n  Stages public stage; //current stage\r\n\r\n  enum Stages {\r\n      AuctionDeployed,\r\n      AuctionSetUp,\r\n      AuctionStarted,\r\n      AuctionEnded,\r\n      TradingStarted\r\n  }\r\n\r\n  //modifiers\r\n  modifier atStage(Stages _stage) {\r\n      if (stage != _stage)\r\n          // Contract not in expected state\r\n          revert();\r\n      _;\r\n  }\r\n\r\n  modifier isOwner() {\r\n      if (msg.sender != owner)\r\n          // Only owner is allowed to proceed\r\n          revert();\r\n      _;\r\n  }\r\n\r\n  modifier isWallet() {\r\n      if (msg.sender != wallet)\r\n          // Only wallet is allowed to proceed\r\n          revert();\r\n      _;\r\n  }\r\n\r\n  modifier isValidPayload() {\r\n      if (msg.data.length != 4 && msg.data.length != 36)\r\n          revert();\r\n      _;\r\n  }\r\n\r\n  modifier timedTransitions() {\r\n      if (stage == Stages.AuctionStarted && calcTokenPrice() <= calcStopPrice())\r\n          finalizeAuction();\r\n      if (stage == Stages.AuctionEnded && now > endTime + WAITING_PERIOD)\r\n          stage = Stages.TradingStarted;\r\n      _;\r\n  }\r\n\r\n  //functions\r\n  /// @dev Contract constructor function sets owner.\r\n  /// @param _wallet Gnosis GLDTokens wallet.\r\n  /// @param _startingPrice Auction starting price.\r\n  /// @param _priceFactor Auction price factor.\r\n  constructor(address payable _wallet, uint _startingPrice, uint _priceFactor)\r\n      public\r\n  {\r\n      if (_wallet == address(0x0) || _startingPrice == 0 || _priceFactor == 0)\r\n          // Arguments are null.\r\n          revert();\r\n      owner = msg.sender;\r\n      wallet = _wallet;\r\n      startingPrice = _startingPrice;\r\n      priceFactor = _priceFactor;\r\n      stage = Stages.AuctionDeployed;\r\n  }\r\n\r\n  /// @dev Setup function sets external contracts' addresses.\r\n  /// @param _gldToken Gnosis gldToken address.\r\n  function setup(address _gldToken)\r\n      public\r\n      isOwner\r\n      atStage(Stages.AuctionDeployed)\r\n  {\r\n      if (_gldToken == address(0x0))\r\n          // Argument is null.\r\n          revert();\r\n      gldToken = GLDToken(_gldToken);\r\n      // Validate token balance\r\n      if (gldToken.balanceOf(address(this)) != MAX_TOKENS_SOLD)\r\n          revert();\r\n      stage = Stages.AuctionSetUp;\r\n  }\r\n\r\n  /// @dev Starts auction and sets startBlock.\r\n  function startAuction()\r\n      public\r\n      isWallet\r\n      atStage(Stages.AuctionSetUp)\r\n  {\r\n      stage = Stages.AuctionStarted;\r\n      startBlock = block.number;\r\n      //should i put a start time here?\r\n  }\r\n\r\n  /// @dev Changes auction starting price and start price factor before auction is started.\r\n  /// @param _startingPrice Updated auction startingPrice.\r\n  /// @param _priceFactor Updated start price factor.\r\n  function changeSettings(uint _startingPrice, uint _priceFactor)\r\n      public\r\n      isWallet\r\n      atStage(Stages.AuctionSetUp)\r\n  {\r\n      startingPrice = _startingPrice;\r\n      priceFactor = _priceFactor;\r\n  }\r\n\r\n  /// @dev Calculates current token price.\r\n  /// @return Returns token price.\r\n  function calcCurrentTokenPrice()\r\n      public\r\n      timedTransitions\r\n      returns (uint)\r\n  {\r\n      if (stage == Stages.AuctionEnded || stage == Stages.TradingStarted)\r\n          return finalPrice;\r\n      return calcTokenPrice();\r\n  }\r\n\r\n  /// @dev Returns correct stage, even if a function with timedTransitions modifier has not yet been called yet.\r\n  /// @return Returns current auction stage.\r\n  function updateStage()\r\n      public\r\n      timedTransitions\r\n      returns (Stages)\r\n  {\r\n      return stage;\r\n  }\r\n\r\n  /// @dev Allows to send a bid to the auction.\r\n  /// @param receiver Bid will be assigned to this address if set.\r\n  function bid(address payable receiver)\r\n      public\r\n      payable\r\n      isValidPayload\r\n      timedTransitions\r\n      atStage(Stages.AuctionStarted)\r\n      returns (uint amount)\r\n  {\r\n      // If a bid is done on behalf of a user via ShapeShift, the receiver address is set.\r\n      if (receiver == address(0x0))\r\n          receiver = msg.sender;\r\n      amount = msg.value;\r\n      // Prevent that more than 90% of tokens are sold. Only relevant if cap not reached.\r\n      uint maxWei = (MAX_TOKENS_SOLD / 10**18) * calcTokenPrice() - totalReceived; // calculate how much is need to earn\r\n      uint maxWeiBasedOnTotalReceived = startingPrice - totalReceived; // if total received is not zero --> got previous bids\r\n      if (maxWeiBasedOnTotalReceived < maxWei)\r\n          maxWei = maxWeiBasedOnTotalReceived;\r\n      // Only invest maximum possible amount.\r\n      if (amount > maxWei) {\r\n          amount = maxWei;\r\n          // Send change back to receiver address. In case of a ShapeShift bid the user receives the change back directly.\r\n          if (!receiver.send(msg.value - amount))\r\n              // Sending failed\r\n              revert();\r\n      }\r\n      // Forward funding to ether wallet\r\n      if (amount == 0 || !wallet.send(amount))\r\n          // No amount sent or sending failed\r\n          revert();\r\n      bids[receiver] += amount; // remember the claim of each participant\r\n      totalReceived += amount; // amount of money earned\r\n      if (maxWei == amount)\r\n          // When maxWei is equal to the big amount the auction is ended and finalizeAuction is triggered.\r\n          finalizeAuction();\r\n      BidSubmission(receiver, amount);\r\n  }\r\n\r\n  /// @dev Claims tokens for bidder after auction.\r\n  /// @param receiver Tokens will be assigned to this address if set.\r\n  function claimTokens(address receiver)\r\n      public\r\n      isValidPayload\r\n      timedTransitions\r\n      atStage(Stages.TradingStarted)\r\n  {\r\n      if (receiver == address(0x0))\r\n          receiver = msg.sender;\r\n      uint tokenCount = bids[receiver] * 10**18 / finalPrice;\r\n      bids[receiver] = 0;\r\n      gldToken.transfer(receiver, tokenCount);\r\n  }\r\n\r\n  /// @dev Calculates stop price.\r\n  /// @return Returns stop price.\r\n  function calcStopPrice()\r\n      view\r\n      public\r\n      returns (uint)\r\n  {\r\n      return totalReceived * 10**18 / MAX_TOKENS_SOLD + 1;\r\n  }\r\n\r\n  /// @dev Calculates token price.\r\n  /// @return Returns token price.\r\n  function calcTokenPrice() //shouldn't price drop with time?\r\n      view\r\n      public\r\n      returns (uint)\r\n  {\r\n      return priceFactor * 10**18 / (block.number - startBlock + 7500) + 1;\r\n  }\r\n  \r\n  // private function\r\n  function finalizeAuction()\r\n      private\r\n  {\r\n      stage = Stages.AuctionEnded;\r\n      if (totalReceived == startingPrice) // if total money received is still at the starting price\r\n          finalPrice = calcTokenPrice();\r\n      else\r\n          finalPrice = calcStopPrice();\r\n      uint soldTokens = totalReceived * 10**18 / finalPrice;\r\n      // Auction contract transfers all unsold tokens to Gnosis inventory multisig\r\n      gldToken.transfer(wallet, MAX_TOKENS_SOLD - soldTokens);\r\n      endTime = now;\r\n  }\r\n\r\n  function toViewablePrice(uint longPrice)\r\n      public\r\n      returns(uint viewablePrice)\r\n  {\r\n    viewablePrice = longPrice / 1*10**18;\r\n  }\r\n}",
  "sourcePath": "D:/Documents(D)/Computer Science Year 3 Sem 1/CZ4153 Blockchain Technology/Project/DutchAuction/backend/contracts/DutchAuction.sol",
  "compiler": {
    "name": "solc",
    "version": "0.6.8+commit.0bbfe453.Emscripten.clang"
  },
  "schemaVersion": "3.3.1",
  "updatedAt": "2020-10-30T19:59:33.433Z",
  "devdoc": {
    "methods": {
      "bid(address)": {
        "details": "Allows to send a bid to the auction.",
        "params": {
          "receiver": "Bid will be assigned to this address if set."
        }
      },
      "calcCurrentTokenPrice()": {
        "details": "Calculates current token price.",
        "returns": {
          "_0": "Returns token price."
        }
      },
      "calcStopPrice()": {
        "details": "Calculates stop price.",
        "returns": {
          "_0": "Returns stop price."
        }
      },
      "calcTokenPrice()": {
        "details": "Calculates token price.",
        "returns": {
          "_0": "Returns token price."
        }
      },
      "changeSettings(uint256,uint256)": {
        "details": "Changes auction starting price and start price factor before auction is started.",
        "params": {
          "_priceFactor": "Updated start price factor.",
          "_startingPrice": "Updated auction startingPrice."
        }
      },
      "claimTokens(address)": {
        "details": "Claims tokens for bidder after auction.",
        "params": {
          "receiver": "Tokens will be assigned to this address if set."
        }
      },
      "constructor": {
        "details": "Contract constructor function sets owner.",
        "params": {
          "_priceFactor": "Auction price factor.",
          "_startingPrice": "Auction starting price.",
          "_wallet": "Gnosis GLDTokens wallet."
        }
      },
      "setup(address)": {
        "details": "Setup function sets external contracts' addresses.",
        "params": {
          "_gldToken": "Gnosis gldToken address."
        }
      },
      "startAuction()": {
        "details": "Starts auction and sets startBlock."
      },
      "updateStage()": {
        "details": "Returns correct stage, even if a function with timedTransitions modifier has not yet been called yet.",
        "returns": {
          "_0": "Returns current auction stage."
        }
      }
    }
  },
  "userdoc": {
    "methods": {}
  }
}