{
  "contractName": "DutchAuction",
  "abi": [
    {
      "inputs": [
        {
          "internalType": "uint256",
          "name": "_itemsToAuction",
          "type": "uint256"
        },
        {
          "internalType": "uint256",
          "name": "_reservePrice",
          "type": "uint256"
        },
        {
          "internalType": "uint256",
          "name": "_startPrice",
          "type": "uint256"
        },
        {
          "internalType": "uint256",
          "name": "_priceDecreaseRate",
          "type": "uint256"
        }
      ],
      "stateMutability": "nonpayable",
      "type": "constructor"
    },
    {
      "anonymous": false,
      "inputs": [
        {
          "indexed": false,
          "internalType": "uint256",
          "name": "_finalPrice",
          "type": "uint256"
        }
      ],
      "name": "AuctionEnded",
      "type": "event"
    },
    {
      "anonymous": false,
      "inputs": [],
      "name": "AuctionStarted",
      "type": "event"
    },
    {
      "anonymous": false,
      "inputs": [
        {
          "indexed": false,
          "internalType": "address",
          "name": "_from",
          "type": "address"
        },
        {
          "indexed": false,
          "internalType": "uint256",
          "name": "quantity",
          "type": "uint256"
        }
      ],
      "name": "BidReceived",
      "type": "event"
    },
    {
      "inputs": [
        {
          "internalType": "address",
          "name": "",
          "type": "address"
        }
      ],
      "name": "amountTransferred",
      "outputs": [
        {
          "internalType": "uint256",
          "name": "",
          "type": "uint256"
        }
      ],
      "stateMutability": "view",
      "type": "function"
    },
    {
      "inputs": [],
      "name": "finalPrice",
      "outputs": [
        {
          "internalType": "uint256",
          "name": "",
          "type": "uint256"
        }
      ],
      "stateMutability": "view",
      "type": "function"
    },
    {
      "inputs": [
        {
          "internalType": "address",
          "name": "",
          "type": "address"
        }
      ],
      "name": "itemsPurchased",
      "outputs": [
        {
          "internalType": "uint256",
          "name": "",
          "type": "uint256"
        }
      ],
      "stateMutability": "view",
      "type": "function"
    },
    {
      "inputs": [],
      "name": "itemsToAuction",
      "outputs": [
        {
          "internalType": "uint256",
          "name": "",
          "type": "uint256"
        }
      ],
      "stateMutability": "view",
      "type": "function"
    },
    {
      "inputs": [],
      "name": "organizer",
      "outputs": [
        {
          "internalType": "address payable",
          "name": "",
          "type": "address"
        }
      ],
      "stateMutability": "view",
      "type": "function"
    },
    {
      "inputs": [],
      "name": "priceDecreaseRate",
      "outputs": [
        {
          "internalType": "uint256",
          "name": "",
          "type": "uint256"
        }
      ],
      "stateMutability": "view",
      "type": "function"
    },
    {
      "inputs": [],
      "name": "reservePrice",
      "outputs": [
        {
          "internalType": "uint256",
          "name": "",
          "type": "uint256"
        }
      ],
      "stateMutability": "view",
      "type": "function"
    },
    {
      "inputs": [],
      "name": "stage",
      "outputs": [
        {
          "internalType": "enum DutchAuction.Stages",
          "name": "",
          "type": "uint8"
        }
      ],
      "stateMutability": "view",
      "type": "function"
    },
    {
      "inputs": [],
      "name": "startBlock",
      "outputs": [
        {
          "internalType": "uint256",
          "name": "",
          "type": "uint256"
        }
      ],
      "stateMutability": "view",
      "type": "function"
    },
    {
      "inputs": [],
      "name": "startPrice",
      "outputs": [
        {
          "internalType": "uint256",
          "name": "",
          "type": "uint256"
        }
      ],
      "stateMutability": "view",
      "type": "function"
    },
    {
      "inputs": [],
      "name": "totalItemsSold",
      "outputs": [
        {
          "internalType": "uint256",
          "name": "",
          "type": "uint256"
        }
      ],
      "stateMutability": "view",
      "type": "function"
    },
    {
      "inputs": [],
      "name": "allowBidding",
      "outputs": [],
      "stateMutability": "nonpayable",
      "type": "function"
    },
    {
      "inputs": [],
      "name": "getCurrentItemPrice",
      "outputs": [
        {
          "internalType": "uint256",
          "name": "",
          "type": "uint256"
        }
      ],
      "stateMutability": "view",
      "type": "function"
    },
    {
      "inputs": [
        {
          "internalType": "uint256",
          "name": "quantity",
          "type": "uint256"
        }
      ],
      "name": "bid",
      "outputs": [],
      "stateMutability": "payable",
      "type": "function"
    },
    {
      "inputs": [],
      "name": "transferEarningsToOrganizer",
      "outputs": [
        {
          "internalType": "bool",
          "name": "success",
          "type": "bool"
        }
      ],
      "stateMutability": "nonpayable",
      "type": "function"
    },
    {
      "inputs": [],
      "name": "withdrawExtraCoins",
      "outputs": [
        {
          "internalType": "uint256",
          "name": "amountReturned",
          "type": "uint256"
        }
      ],
      "stateMutability": "nonpayable",
      "type": "function"
    },
    {
      "inputs": [],
      "name": "claimItems",
      "outputs": [],
      "stateMutability": "nonpayable",
      "type": "function"
    }
  ],
  "bytecode": "0x608060405234801561001057600080fd5b50604051610dd7380380610dd78339818101604052608081101561003357600080fd5b8101908080519060200190929190805190602001909291908051906020019092919080519060200190929190505050336000806101000a81548173ffffffffffffffffffffffffffffffffffffffff021916908373ffffffffffffffffffffffffffffffffffffffff1602179055508360018190555060006004819055508260058190555081600681905550806007819055506000600a60006101000a81548160ff021916908360038111156100e557fe5b021790555050505050610cda806100fd6000396000f3fe6080604052600436106100fe5760003560e01c8063a6b513ee11610095578063d575c40911610064578063d575c4091461036e578063d72fecca14610385578063db2e1eed146103ea578063eecb24ec14610415578063f1a9af8914610440576100fe565b8063a6b513ee146102c8578063c040e6b8146102f3578063ca7e94c21461032c578063d4982d3914610343576100fe565b806361203265116100d157806361203265146101b257806367dfd3d614610209578063915acb351461023857806397e187d91461029d576100fe565b806328e5d54f14610103578063454a2ab31461012e57806348cd4cb11461015c5780635e0ddc9214610187575b600080fd5b34801561010f57600080fd5b5061011861046b565b6040518082815260200191505060405180910390f35b61015a6004803603602081101561014457600080fd5b8101908080359060200190929190505050610471565b005b34801561016857600080fd5b50610171610792565b6040518082815260200191505060405180910390f35b34801561019357600080fd5b5061019c610798565b6040518082815260200191505060405180910390f35b3480156101be57600080fd5b506101c761079e565b604051808273ffffffffffffffffffffffffffffffffffffffff1673ffffffffffffffffffffffffffffffffffffffff16815260200191505060405180910390f35b34801561021557600080fd5b5061021e6107c3565b604051808215151515815260200191505060405180910390f35b34801561024457600080fd5b506102876004803603602081101561025b57600080fd5b81019080803573ffffffffffffffffffffffffffffffffffffffff169060200190929190505050610936565b6040518082815260200191505060405180910390f35b3480156102a957600080fd5b506102b261094e565b6040518082815260200191505060405180910390f35b3480156102d457600080fd5b506102dd610996565b6040518082815260200191505060405180910390f35b3480156102ff57600080fd5b5061030861099c565b6040518082600381111561031857fe5b60ff16815260200191505060405180910390f35b34801561033857600080fd5b506103416109af565b005b34801561034f57600080fd5b50610358610a95565b6040518082815260200191505060405180910390f35b34801561037a57600080fd5b50610383610c44565b005b34801561039157600080fd5b506103d4600480360360208110156103a857600080fd5b81019080803573ffffffffffffffffffffffffffffffffffffffff169060200190929190505050610c7a565b6040518082815260200191505060405180910390f35b3480156103f657600080fd5b506103ff610c92565b6040518082815260200191505060405180910390f35b34801561042157600080fd5b5061042a610c98565b6040518082815260200191505060405180910390f35b34801561044c57600080fd5b50610455610c9e565b6040518082815260200191505060405180910390f35b60045481565b600180600381111561047f57fe5b600a60009054906101000a900460ff16600381111561049a57fe5b146104a457600080fd5b60006104ae61094e565b9050600454600154116104c057600080fd5b34600360003373ffffffffffffffffffffffffffffffffffffffff1673ffffffffffffffffffffffffffffffffffffffff1681526020019081526020016000205401600260003373ffffffffffffffffffffffffffffffffffffffff1673ffffffffffffffffffffffffffffffffffffffff1681526020019081526020016000205484018202111561055157600080fd5b6005548110156105c45760006008819055506003600a60006101000a81548160ff0219169083600381111561058257fe5b02179055507f45806e512b1f4f10e33e8b3cb64d1d11d998d8c554a95e0841fc1c701278bd5d60006040518082815260200191505060405180910390a161069d565b600083905060015481600454011061060b57600454600154039050816008819055506002600a60006101000a81548160ff0219169083600381111561060557fe5b02179055505b806004540160048190555080600260003373ffffffffffffffffffffffffffffffffffffffff1673ffffffffffffffffffffffffffffffffffffffff1681526020019081526020016000205401600260003373ffffffffffffffffffffffffffffffffffffffff1673ffffffffffffffffffffffffffffffffffffffff16815260200190815260200160002081905550505b34600360003373ffffffffffffffffffffffffffffffffffffffff1673ffffffffffffffffffffffffffffffffffffffff1681526020019081526020016000205401600360003373ffffffffffffffffffffffffffffffffffffffff1673ffffffffffffffffffffffffffffffffffffffff168152602001908152602001600020819055507f9a0fa8b9e74b6a70081d4c7ce0cab294a0781d754833b19e1c96e2107f6310ea3384604051808373ffffffffffffffffffffffffffffffffffffffff1673ffffffffffffffffffffffffffffffffffffffff1681526020018281526020019250505060405180910390a1505050565b60095481565b60015481565b6000809054906101000a900473ffffffffffffffffffffffffffffffffffffffff1681565b60008060009054906101000a900473ffffffffffffffffffffffffffffffffffffffff1673ffffffffffffffffffffffffffffffffffffffff163373ffffffffffffffffffffffffffffffffffffffff161461081e57600080fd5b600280600381111561082c57fe5b600a60009054906101000a900460ff16600381111561084757fe5b1461085157600080fd5b6000600854600454029050600081111561092c576000809054906101000a900473ffffffffffffffffffffffffffffffffffffffff1673ffffffffffffffffffffffffffffffffffffffff166108fc829081150290604051600060405180830381858888f1935050505015610927576003600a60006101000a81548160ff021916908360038111156108df57fe5b02179055507f45806e512b1f4f10e33e8b3cb64d1d11d998d8c554a95e0841fc1c701278bd5d6008546040518082815260200191505060405180910390a16001925050610932565b600080fd5b60009250505b5090565b60036020528060005260406000206000915090505481565b6000600180600381111561095e57fe5b600a60009054906101000a900460ff16600381111561097957fe5b1461098357600080fd5b6009544303600754026006540391505090565b60085481565b600a60009054906101000a900460ff1681565b6000809054906101000a900473ffffffffffffffffffffffffffffffffffffffff1673ffffffffffffffffffffffffffffffffffffffff163373ffffffffffffffffffffffffffffffffffffffff1614610a0857600080fd5b6000806003811115610a1657fe5b600a60009054906101000a900460ff166003811115610a3157fe5b14610a3b57600080fd5b6001600a60006101000a81548160ff02191690836003811115610a5a57fe5b0217905550436009819055507fc8f99b9ac2a284b93c3652b9f064a6706724088cdafa9e0a8437c026191b2f0360405160405180910390a150565b60006003806003811115610aa557fe5b600a60009054906101000a900460ff166003811115610ac057fe5b14610aca57600080fd5b6000600360003373ffffffffffffffffffffffffffffffffffffffff1673ffffffffffffffffffffffffffffffffffffffff1681526020019081526020016000205490506000600260003373ffffffffffffffffffffffffffffffffffffffff1673ffffffffffffffffffffffffffffffffffffffff1681526020019081526020016000205460085402820390506000811115610c3957808203600360003373ffffffffffffffffffffffffffffffffffffffff1673ffffffffffffffffffffffffffffffffffffffff168152602001908152602001600020819055503373ffffffffffffffffffffffffffffffffffffffff166108fc829081150290604051600060405180830381858888f19350505050610c2f5781600360003373ffffffffffffffffffffffffffffffffffffffff1673ffffffffffffffffffffffffffffffffffffffff16815260200190815260200160002081905550600093505050610c40565b8093505050610c40565b6000935050505b5090565b6003806003811115610c5257fe5b600a60009054906101000a900460ff166003811115610c6d57fe5b14610c7757600080fd5b50565b60026020528060005260406000206000915090505481565b60055481565b60075481565b6006548156fea26469706673582212203d3dd757ed7ec7c678f50f410146ca732014e89897e2e990df1edab0c2939cae64736f6c63430006080033",
  "immutableReferences": {},
  "source": "pragma solidity ^0.6.0;\r\n\r\ncontract DutchAuction {\r\n  address payable public organizer;\r\n  uint public itemsToAuction;\r\n  mapping (address => uint) public itemsPurchased;\r\n  mapping (address => uint) public amountTransferred;\r\n  uint public totalItemsSold;\r\n  uint public reservePrice;\r\n  uint public startPrice;\r\n  uint public priceDecreaseRate;\r\n  uint public finalPrice;\r\n  uint public startBlock;\r\n  Stages public stage;\r\n\r\n  event AuctionStarted();\r\n  event BidReceived(address _from, uint quantity);\r\n  event AuctionEnded(uint _finalPrice);\r\n\r\n  enum Stages {\r\n    StageInitialized,    // Seller has constructed the contract\r\n    StageAcceptingBids,  // Buyers can start bidding\r\n    StageBidFinished,    // Bidding period over(cost has dropped below \r\n                         // reserve price) or all items sold\r\n    StageAuctionEnded    // Buyers can claim back extra coins sent \r\n  }\r\n\r\n  modifier atStage(Stages _stage) {\r\n    require(stage == _stage);\r\n    _;\r\n  }\r\n\r\n  modifier isOrganizer() {\r\n    require(msg.sender == organizer);\r\n    _;\r\n  }\r\n\r\n  // Constructor\r\n  constructor(uint _itemsToAuction, uint _reservePrice, \r\n      uint _startPrice, uint _priceDecreaseRate) public { \r\n    organizer = msg.sender;     \r\n    itemsToAuction = _itemsToAuction;\r\n    totalItemsSold = 0;\r\n    reservePrice = _reservePrice;\r\n    startPrice = _startPrice;\r\n    priceDecreaseRate = _priceDecreaseRate;\r\n    stage = Stages.StageInitialized;\r\n  }\r\n\r\n  // Only organizer/ creator of the contract can allow bidding process to begin\r\n  function allowBidding() public isOrganizer atStage(Stages.StageInitialized)\r\n  {\r\n    stage = Stages.StageAcceptingBids;\r\n    startBlock = block.number;\r\n    emit AuctionStarted();\r\n  }\r\n\r\n  // Get current price of the item(denoted by some decreasing function)\r\n  function getCurrentItemPrice() public view atStage(Stages.StageAcceptingBids) returns (uint)\r\n  {\r\n    return startPrice - priceDecreaseRate*(block.number - startBlock);\r\n  }\r\n\r\n  // Anyone can bid by sending the quantity and enough coins during bidding period\r\n  function bid(uint quantity) public payable atStage(Stages.StageAcceptingBids) {\r\n    uint currentPrice = getCurrentItemPrice();\r\n    // throw if we have run out of items to sell\r\n    require(itemsToAuction > totalItemsSold);\r\n    // throw if not enough coins have been received for requested number of items\r\n    require(currentPrice * (quantity + itemsPurchased[msg.sender]) <= \r\n        amountTransferred[msg.sender] + msg.value); \r\n\r\n    // If all items couldn't be sold by bidding period, abort the auction and let everyone\r\n    // withdraw back the coins they deposited \r\n    if(currentPrice < reservePrice) {\r\n      finalPrice = 0;\r\n      stage = Stages.StageAuctionEnded;\r\n      emit AuctionEnded(0);\r\n    }\r\n    else {\r\n      uint itemsToSell = quantity;\r\n      // If items requested is greater than number of items remaining to sell,\r\n      // decrease items requested to items remaining and end bidding state\r\n      if(totalItemsSold + itemsToSell >= itemsToAuction) {\r\n        itemsToSell = itemsToAuction - totalItemsSold;\r\n        finalPrice = currentPrice;\r\n        stage = Stages.StageBidFinished;\r\n      }\r\n      totalItemsSold = totalItemsSold + itemsToSell;\r\n      itemsPurchased[msg.sender] = itemsPurchased[msg.sender] + itemsToSell;\r\n    }\r\n    amountTransferred[msg.sender] = amountTransferred[msg.sender] + msg.value;\r\n    emit BidReceived(msg.sender, quantity);\r\n  }\r\n\r\n  // Bid organizer gets first chance to withdraw coins for items sold\r\n  function transferEarningsToOrganizer() public isOrganizer \r\n      atStage(Stages.StageBidFinished) returns (bool success) {\r\n    uint earnings = totalItemsSold * finalPrice;\r\n    if(earnings > 0) {\r\n      if(organizer.send(earnings)) {\r\n      \tstage = Stages.StageAuctionEnded;\r\n        emit AuctionEnded(finalPrice);\r\n      \treturn true;\r\n      }\r\n      else revert();\r\n    }\r\n    return false;\r\n  }\r\n\r\n  // Bidders get to withdraw extra coins leftover due to their over-payments\r\n  function withdrawExtraCoins() public atStage(Stages.StageAuctionEnded) \r\n      returns (uint amountReturned) {\r\n    uint totalAmountTransferred = amountTransferred[msg.sender];\r\n    uint extra = totalAmountTransferred - finalPrice * itemsPurchased[msg.sender];\r\n    if(extra > 0) {\r\n      amountTransferred[msg.sender] = totalAmountTransferred - extra;\r\n      if (!msg.sender.send(extra)) {\r\n          amountTransferred[msg.sender] = totalAmountTransferred;\r\n          return 0;\r\n      }\r\n      else {\r\n      \treturn extra;\r\n      }\r\n    }\r\n    return 0;\r\n  }\r\n\r\n  // Buyers claim the tokens/ items they were bidding for\r\n  function claimItems() public atStage(Stages.StageAuctionEnded) {\r\n    // To be implemented based on item/ token on a case-by-case basis\r\n  }\r\n}\r\n",
  "sourcePath": "D:/Documents(D)/Computer Science Year 3 Sem 1/CZ4153 Blockchain Technology/Project/DutchAuction/backend/contracts/DutchAuction.sol",
  "compiler": {
    "name": "solc",
    "version": "0.6.8+commit.0bbfe453.Emscripten.clang"
  },
  "schemaVersion": "3.3.1",
  "updatedAt": "2020-10-29T09:24:40.670Z",
  "devdoc": {
    "methods": {}
  },
  "userdoc": {
    "methods": {}
  }
}