{
  "contractName": "DutchAuction",
  "abi": [
    {
      "inputs": [
        {
          "internalType": "uint256",
          "name": "_itemsToAuction",
          "type": "uint256"
        },
        {
          "internalType": "uint256",
          "name": "_reservePrice",
          "type": "uint256"
        },
        {
          "internalType": "uint256",
          "name": "_startPrice",
          "type": "uint256"
        },
        {
          "internalType": "uint256",
          "name": "_priceDecreaseRate",
          "type": "uint256"
        }
      ],
      "payable": false,
      "stateMutability": "nonpayable",
      "type": "constructor"
    },
    {
      "anonymous": false,
      "inputs": [
        {
          "indexed": false,
          "internalType": "uint256",
          "name": "_finalPrice",
          "type": "uint256"
        }
      ],
      "name": "AuctionEnded",
      "type": "event"
    },
    {
      "anonymous": false,
      "inputs": [],
      "name": "AuctionStarted",
      "type": "event"
    },
    {
      "anonymous": false,
      "inputs": [
        {
          "indexed": false,
          "internalType": "address",
          "name": "_from",
          "type": "address"
        },
        {
          "indexed": false,
          "internalType": "uint256",
          "name": "quantity",
          "type": "uint256"
        }
      ],
      "name": "BidReceived",
      "type": "event"
    },
    {
      "constant": true,
      "inputs": [
        {
          "internalType": "address",
          "name": "",
          "type": "address"
        }
      ],
      "name": "amountTransferred",
      "outputs": [
        {
          "internalType": "uint256",
          "name": "",
          "type": "uint256"
        }
      ],
      "payable": false,
      "stateMutability": "view",
      "type": "function"
    },
    {
      "constant": true,
      "inputs": [],
      "name": "finalPrice",
      "outputs": [
        {
          "internalType": "uint256",
          "name": "",
          "type": "uint256"
        }
      ],
      "payable": false,
      "stateMutability": "view",
      "type": "function"
    },
    {
      "constant": true,
      "inputs": [
        {
          "internalType": "address",
          "name": "",
          "type": "address"
        }
      ],
      "name": "itemsPurchased",
      "outputs": [
        {
          "internalType": "uint256",
          "name": "",
          "type": "uint256"
        }
      ],
      "payable": false,
      "stateMutability": "view",
      "type": "function"
    },
    {
      "constant": true,
      "inputs": [],
      "name": "itemsToAuction",
      "outputs": [
        {
          "internalType": "uint256",
          "name": "",
          "type": "uint256"
        }
      ],
      "payable": false,
      "stateMutability": "view",
      "type": "function"
    },
    {
      "constant": true,
      "inputs": [],
      "name": "organizer",
      "outputs": [
        {
          "internalType": "address payable",
          "name": "",
          "type": "address"
        }
      ],
      "payable": false,
      "stateMutability": "view",
      "type": "function"
    },
    {
      "constant": true,
      "inputs": [],
      "name": "priceDecreaseRate",
      "outputs": [
        {
          "internalType": "uint256",
          "name": "",
          "type": "uint256"
        }
      ],
      "payable": false,
      "stateMutability": "view",
      "type": "function"
    },
    {
      "constant": true,
      "inputs": [],
      "name": "reservePrice",
      "outputs": [
        {
          "internalType": "uint256",
          "name": "",
          "type": "uint256"
        }
      ],
      "payable": false,
      "stateMutability": "view",
      "type": "function"
    },
    {
      "constant": true,
      "inputs": [],
      "name": "stage",
      "outputs": [
        {
          "internalType": "enum DutchAuction.Stages",
          "name": "",
          "type": "uint8"
        }
      ],
      "payable": false,
      "stateMutability": "view",
      "type": "function"
    },
    {
      "constant": true,
      "inputs": [],
      "name": "startBlock",
      "outputs": [
        {
          "internalType": "uint256",
          "name": "",
          "type": "uint256"
        }
      ],
      "payable": false,
      "stateMutability": "view",
      "type": "function"
    },
    {
      "constant": true,
      "inputs": [],
      "name": "startPrice",
      "outputs": [
        {
          "internalType": "uint256",
          "name": "",
          "type": "uint256"
        }
      ],
      "payable": false,
      "stateMutability": "view",
      "type": "function"
    },
    {
      "constant": true,
      "inputs": [],
      "name": "totalItemsSold",
      "outputs": [
        {
          "internalType": "uint256",
          "name": "",
          "type": "uint256"
        }
      ],
      "payable": false,
      "stateMutability": "view",
      "type": "function"
    },
    {
      "constant": false,
      "inputs": [],
      "name": "allowBidding",
      "outputs": [],
      "payable": false,
      "stateMutability": "nonpayable",
      "type": "function"
    },
    {
      "constant": true,
      "inputs": [],
      "name": "getCurrentItemPrice",
      "outputs": [
        {
          "internalType": "uint256",
          "name": "",
          "type": "uint256"
        }
      ],
      "payable": false,
      "stateMutability": "view",
      "type": "function"
    },
    {
      "constant": false,
      "inputs": [
        {
          "internalType": "uint256",
          "name": "quantity",
          "type": "uint256"
        }
      ],
      "name": "bid",
      "outputs": [],
      "payable": true,
      "stateMutability": "payable",
      "type": "function"
    },
    {
      "constant": false,
      "inputs": [],
      "name": "transferEarningsToOrganizer",
      "outputs": [
        {
          "internalType": "bool",
          "name": "success",
          "type": "bool"
        }
      ],
      "payable": false,
      "stateMutability": "nonpayable",
      "type": "function"
    },
    {
      "constant": false,
      "inputs": [],
      "name": "withdrawExtraCoins",
      "outputs": [
        {
          "internalType": "uint256",
          "name": "amountReturned",
          "type": "uint256"
        }
      ],
      "payable": false,
      "stateMutability": "nonpayable",
      "type": "function"
    },
    {
      "constant": false,
      "inputs": [],
      "name": "claimItems",
      "outputs": [],
      "payable": false,
      "stateMutability": "nonpayable",
      "type": "function"
    }
  ],
  "bytecode": "0x608060405234801561001057600080fd5b506040516107cf3803806107cf8339818101604052608081101561003357600080fd5b50805160208201516040830151606090930151600080546001600160a01b031916331781556001939093556004839055600591909155600692909255600791909155600a805460ff1916905561074090819061008f90396000f3fe6080604052600436106100fe5760003560e01c8063a6b513ee11610095578063d575c40911610064578063d575c4091461028d578063d72fecca146102a2578063db2e1eed146102d5578063eecb24ec146102ea578063f1a9af89146102ff576100fe565b8063a6b513ee14610215578063c040e6b81461022a578063ca7e94c214610263578063d4982d3914610278576100fe565b806361203265116100d1578063612032651461017357806367dfd3d6146101a4578063915acb35146101cd57806397e187d914610200576100fe565b806328e5d54f14610103578063454a2ab31461012a57806348cd4cb1146101495780635e0ddc921461015e575b600080fd5b34801561010f57600080fd5b50610118610314565b60408051918252519081900360200190f35b6101476004803603602081101561014057600080fd5b503561031a565b005b34801561015557600080fd5b50610118610478565b34801561016a57600080fd5b5061011861047e565b34801561017f57600080fd5b50610188610484565b604080516001600160a01b039092168252519081900360200190f35b3480156101b057600080fd5b506101b9610493565b604080519115158252519081900360200190f35b3480156101d957600080fd5b50610118600480360360208110156101f057600080fd5b50356001600160a01b031661055a565b34801561020c57600080fd5b5061011861056c565b34801561022157600080fd5b5061011861059f565b34801561023657600080fd5b5061023f6105a5565b6040518082600381111561024f57fe5b60ff16815260200191505060405180910390f35b34801561026f57600080fd5b506101476105ae565b34801561028457600080fd5b50610118610620565b34801561029957600080fd5b506101476106c6565b3480156102ae57600080fd5b50610118600480360360208110156102c557600080fd5b50356001600160a01b03166106e7565b3480156102e157600080fd5b506101186106f9565b3480156102f657600080fd5b506101186106ff565b34801561030b57600080fd5b50610118610705565b60045481565b600180600a5460ff16600381111561032e57fe5b1461033857600080fd5b600061034261056c565b90506004546001541161035457600080fd5b33600090815260036020908152604080832054600290925290912054349091019084018202111561038457600080fd5b6005548110156103da5760006008819055600a805460ff1916600317905560408051918252517f45806e512b1f4f10e33e8b3cb64d1d11d998d8c554a95e0841fc1c701278bd5d916020908290030190a1610424565b60015460045484919082011061040557506004546001546008839055600a805460ff19166002179055035b6004805482019055336000908152600260205260409020805490910190555b336000818152600360209081526040918290208054340190558151928352820185905280517f9a0fa8b9e74b6a70081d4c7ce0cab294a0781d754833b19e1c96e2107f6310ea9281900390910190a1505050565b60095481565b60015481565b6000546001600160a01b031681565b600080546001600160a01b031633146104ab57600080fd5b600280600a5460ff1660038111156104bf57fe5b146104c957600080fd5b60085460045402801561055057600080546040516001600160a01b039091169183156108fc02918491818181858888f19350505050156100fe57600a805460ff1916600317905560085460408051918252517f45806e512b1f4f10e33e8b3cb64d1d11d998d8c554a95e0841fc1c701278bd5d916020908290030190a16001925050610556565b60009250505b5090565b60036020526000908152604090205481565b6000600180600a5460ff16600381111561058257fe5b1461058c57600080fd5b6009544303600754026006540391505090565b60085481565b600a5460ff1681565b6000546001600160a01b031633146105c557600080fd5b600080600a5460ff1660038111156105d957fe5b146105e357600080fd5b600a805460ff19166001179055436009556040517fc8f99b9ac2a284b93c3652b9f064a6706724088cdafa9e0a8437c026191b2f0390600090a150565b6000600380600a5460ff16600381111561063657fe5b1461064057600080fd5b3360009081526003602090815260408083205460029092529091205460085402810380156106bc573360008181526003602052604080822084860390555183156108fc0291849190818181858888f193505050506106b35750336000908152600360205260408120919091559150610556565b92506105569050565b6000935050505090565b600380600a5460ff1660038111156106da57fe5b146106e457600080fd5b50565b60026020526000908152604090205481565b60055481565b60075481565b6006548156fea265627a7a72315820e7e49a11d67c98cbccfdf8929e6ad49184f8405445b6de8214cef3feb01038af64736f6c63430005100032",
  "source": "pragma solidity ^0.5.16;\n\ncontract DutchAuction {\n  address payable public organizer;\n  uint public itemsToAuction;\n  mapping (address => uint) public itemsPurchased;\n  mapping (address => uint) public amountTransferred;\n  uint public totalItemsSold;\n  uint public reservePrice;\n  uint public startPrice;\n  uint public priceDecreaseRate;\n  uint public finalPrice;\n  uint public startBlock;\n  Stages public stage;\n\n  event AuctionStarted();\n  event BidReceived(address _from, uint quantity);\n  event AuctionEnded(uint _finalPrice);\n\n  enum Stages {\n    StageInitialized,    // Seller has constructed the contract\n    StageAcceptingBids,  // Buyers can start bidding\n    StageBidFinished,    // Bidding period over(cost has dropped below \n                         // reserve price) or all items sold\n    StageAuctionEnded    // Buyers can claim back extra coins sent \n  }\n\n  modifier atStage(Stages _stage) {\n    require(stage == _stage);\n    _;\n  }\n\n  modifier isOrganizer() {\n    require(msg.sender == organizer);\n    _;\n  }\n\n  // Constructor\n  constructor(uint _itemsToAuction, uint _reservePrice, \n      uint _startPrice, uint _priceDecreaseRate) public { \n    organizer = msg.sender;     \n    itemsToAuction = _itemsToAuction;\n    totalItemsSold = 0;\n    reservePrice = _reservePrice;\n    startPrice = _startPrice;\n    priceDecreaseRate = _priceDecreaseRate;\n    stage = Stages.StageInitialized;\n  }\n\n  // Only organizer/ creator of the contract can allow bidding process to begin\n  function allowBidding() public isOrganizer atStage(Stages.StageInitialized)\n  {\n    stage = Stages.StageAcceptingBids;\n    startBlock = block.number;\n    emit AuctionStarted();\n  }\n\n  // Get current price of the item(denoted by some decreasing function)\n  function getCurrentItemPrice() public view atStage(Stages.StageAcceptingBids) returns (uint)\n  {\n    return startPrice - priceDecreaseRate*(block.number - startBlock);\n  }\n\n  // Anyone can bid by sending the quantity and enough coins during bidding period\n  function bid(uint quantity) public payable atStage(Stages.StageAcceptingBids) {\n    uint currentPrice = getCurrentItemPrice();\n    // throw if we have run out of items to sell\n    require(itemsToAuction > totalItemsSold);\n    // throw if not enough coins have been received for requested number of items\n    require(currentPrice * (quantity + itemsPurchased[msg.sender]) <= \n        amountTransferred[msg.sender] + msg.value); \n\n    // If all items couldn't be sold by bidding period, abort the auction and let everyone\n    // withdraw back the coins they deposited \n    if(currentPrice < reservePrice) {\n      finalPrice = 0;\n      stage = Stages.StageAuctionEnded;\n      emit AuctionEnded(0);\n    }\n    else {\n      uint itemsToSell = quantity;\n      // If items requested is greater than number of items remaining to sell,\n      // decrease items requested to items remaining and end bidding state\n      if(totalItemsSold + itemsToSell >= itemsToAuction) {\n        itemsToSell = itemsToAuction - totalItemsSold;\n        finalPrice = currentPrice;\n        stage = Stages.StageBidFinished;\n      }\n      totalItemsSold = totalItemsSold + itemsToSell;\n      itemsPurchased[msg.sender] = itemsPurchased[msg.sender] + itemsToSell;\n    }\n    amountTransferred[msg.sender] = amountTransferred[msg.sender] + msg.value;\n    emit BidReceived(msg.sender, quantity);\n  }\n\n  // Bid organizer gets first chance to withdraw coins for items sold\n  function transferEarningsToOrganizer() public isOrganizer \n      atStage(Stages.StageBidFinished) returns (bool success) {\n    uint earnings = totalItemsSold * finalPrice;\n    if(earnings > 0) {\n      if(organizer.send(earnings)) {\n      \tstage = Stages.StageAuctionEnded;\n        emit AuctionEnded(finalPrice);\n      \treturn true;\n      }\n      else revert();\n    }\n    return false;\n  }\n\n  // Bidders get to withdraw extra coins leftover due to their over-payments\n  function withdrawExtraCoins() public atStage(Stages.StageAuctionEnded) \n      returns (uint amountReturned) {\n    uint totalAmountTransferred = amountTransferred[msg.sender];\n    uint extra = totalAmountTransferred - finalPrice * itemsPurchased[msg.sender];\n    if(extra > 0) {\n      amountTransferred[msg.sender] = totalAmountTransferred - extra;\n      if (!msg.sender.send(extra)) {\n          amountTransferred[msg.sender] = totalAmountTransferred;\n          return 0;\n      }\n      else {\n      \treturn extra;\n      }\n    }\n    return 0;\n  }\n\n  // Buyers claim the tokens/ items they were bidding for\n  function claimItems() public atStage(Stages.StageAuctionEnded) {\n    // To be implemented based on item/ token on a case-by-case basis\n  }\n}\n",
  "sourcePath": "C:/Users/shiny/OneDrive/Documents/Y3S1/Blockchain/DutchAuctionDapp/contracts/DutchAuction.sol",
  "compiler": {
    "name": "solc",
    "version": "0.5.16+commit.9c3226ce.Emscripten.clang"
  },
  "schemaVersion": "3.3.1",
  "updatedAt": "2020-10-25T07:48:17.621Z",
  "networkType": "ethereum",
  "devdoc": {
    "methods": {}
  },
  "userdoc": {
    "methods": {}
  }
}