{
  "contractName": "DutchAuction",
  "abi": [
    {
      "inputs": [
        {
          "internalType": "address",
          "name": "_wallet",
          "type": "address"
        },
        {
          "internalType": "uint256",
          "name": "_ceiling",
          "type": "uint256"
        },
        {
          "internalType": "uint256",
          "name": "_priceFactor",
          "type": "uint256"
        }
      ],
      "stateMutability": "nonpayable",
      "type": "constructor"
    },
    {
      "anonymous": false,
      "inputs": [
        {
          "indexed": true,
          "internalType": "address",
          "name": "sender",
          "type": "address"
        },
        {
          "indexed": false,
          "internalType": "uint256",
          "name": "amount",
          "type": "uint256"
        }
      ],
      "name": "BidSubmission",
      "type": "event"
    },
    {
      "inputs": [],
      "name": "MAX_TOKENS_SOLD",
      "outputs": [
        {
          "internalType": "uint256",
          "name": "",
          "type": "uint256"
        }
      ],
      "stateMutability": "view",
      "type": "function"
    },
    {
      "inputs": [],
      "name": "WAITING_PERIOD",
      "outputs": [
        {
          "internalType": "uint256",
          "name": "",
          "type": "uint256"
        }
      ],
      "stateMutability": "view",
      "type": "function"
    },
    {
      "inputs": [
        {
          "internalType": "address",
          "name": "",
          "type": "address"
        }
      ],
      "name": "bids",
      "outputs": [
        {
          "internalType": "uint256",
          "name": "",
          "type": "uint256"
        }
      ],
      "stateMutability": "view",
      "type": "function"
    },
    {
      "inputs": [
        {
          "internalType": "address",
          "name": "",
          "type": "address"
        }
      ],
      "name": "bids2",
      "outputs": [
        {
          "internalType": "uint256",
          "name": "price",
          "type": "uint256"
        },
        {
          "internalType": "uint256",
          "name": "transfer",
          "type": "uint256"
        },
        {
          "internalType": "bool",
          "name": "placed",
          "type": "bool"
        },
        {
          "internalType": "bool",
          "name": "claimed",
          "type": "bool"
        },
        {
          "internalType": "bool",
          "name": "isBitcoin",
          "type": "bool"
        }
      ],
      "stateMutability": "view",
      "type": "function"
    },
    {
      "inputs": [],
      "name": "ceiling",
      "outputs": [
        {
          "internalType": "uint256",
          "name": "",
          "type": "uint256"
        }
      ],
      "stateMutability": "view",
      "type": "function"
    },
    {
      "inputs": [],
      "name": "current_stage",
      "outputs": [
        {
          "internalType": "enum DutchAuction.Stages",
          "name": "",
          "type": "uint8"
        }
      ],
      "stateMutability": "view",
      "type": "function"
    },
    {
      "inputs": [],
      "name": "endTime",
      "outputs": [
        {
          "internalType": "uint256",
          "name": "",
          "type": "uint256"
        }
      ],
      "stateMutability": "view",
      "type": "function"
    },
    {
      "inputs": [],
      "name": "finalPrice",
      "outputs": [
        {
          "internalType": "uint256",
          "name": "",
          "type": "uint256"
        }
      ],
      "stateMutability": "view",
      "type": "function"
    },
    {
      "inputs": [],
      "name": "gldToken",
      "outputs": [
        {
          "internalType": "contract GLDToken",
          "name": "",
          "type": "address"
        }
      ],
      "stateMutability": "view",
      "type": "function"
    },
    {
      "inputs": [],
      "name": "owner",
      "outputs": [
        {
          "internalType": "address",
          "name": "",
          "type": "address"
        }
      ],
      "stateMutability": "view",
      "type": "function"
    },
    {
      "inputs": [],
      "name": "priceFactor",
      "outputs": [
        {
          "internalType": "uint256",
          "name": "",
          "type": "uint256"
        }
      ],
      "stateMutability": "view",
      "type": "function"
    },
    {
      "inputs": [],
      "name": "startBlock",
      "outputs": [
        {
          "internalType": "uint256",
          "name": "",
          "type": "uint256"
        }
      ],
      "stateMutability": "view",
      "type": "function"
    },
    {
      "inputs": [],
      "name": "totalReceived",
      "outputs": [
        {
          "internalType": "uint256",
          "name": "",
          "type": "uint256"
        }
      ],
      "stateMutability": "view",
      "type": "function"
    },
    {
      "inputs": [],
      "name": "wallet",
      "outputs": [
        {
          "internalType": "address",
          "name": "",
          "type": "address"
        }
      ],
      "stateMutability": "view",
      "type": "function"
    },
    {
      "inputs": [
        {
          "internalType": "address",
          "name": "_gldToken",
          "type": "address"
        }
      ],
      "name": "setup",
      "outputs": [],
      "stateMutability": "nonpayable",
      "type": "function"
    },
    {
      "inputs": [],
      "name": "startAuction",
      "outputs": [],
      "stateMutability": "nonpayable",
      "type": "function"
    },
    {
      "inputs": [
        {
          "internalType": "uint256",
          "name": "_ceiling",
          "type": "uint256"
        },
        {
          "internalType": "uint256",
          "name": "_priceFactor",
          "type": "uint256"
        }
      ],
      "name": "changeSettings",
      "outputs": [],
      "stateMutability": "nonpayable",
      "type": "function"
    },
    {
      "inputs": [],
      "name": "calcCurrentTokenPrice",
      "outputs": [
        {
          "internalType": "uint256",
          "name": "",
          "type": "uint256"
        }
      ],
      "stateMutability": "nonpayable",
      "type": "function"
    },
    {
      "inputs": [],
      "name": "updateStage",
      "outputs": [
        {
          "internalType": "enum DutchAuction.Stages",
          "name": "",
          "type": "uint8"
        }
      ],
      "stateMutability": "nonpayable",
      "type": "function"
    },
    {
      "inputs": [
        {
          "internalType": "address",
          "name": "receiver",
          "type": "address"
        }
      ],
      "name": "bid",
      "outputs": [
        {
          "internalType": "uint256",
          "name": "amount",
          "type": "uint256"
        }
      ],
      "stateMutability": "payable",
      "type": "function"
    },
    {
      "inputs": [
        {
          "internalType": "address",
          "name": "receiver",
          "type": "address"
        }
      ],
      "name": "claimTokens",
      "outputs": [],
      "stateMutability": "nonpayable",
      "type": "function"
    },
    {
      "inputs": [],
      "name": "calcStopPrice",
      "outputs": [
        {
          "internalType": "uint256",
          "name": "",
          "type": "uint256"
        }
      ],
      "stateMutability": "view",
      "type": "function"
    },
    {
      "inputs": [],
      "name": "calcTokenPrice",
      "outputs": [
        {
          "internalType": "uint256",
          "name": "",
          "type": "uint256"
        }
      ],
      "stateMutability": "view",
      "type": "function"
    }
  ],
  "bytecode": "0x608060405234801561001057600080fd5b506040516116533803806116538339818101604052606081101561003357600080fd5b81019080805190602001909291908051906020019092919080519060200190929190505050600073ffffffffffffffffffffffffffffffffffffffff168373ffffffffffffffffffffffffffffffffffffffff1614806100935750600082145b8061009e5750600081145b156100a857600080fd5b33600260006101000a81548173ffffffffffffffffffffffffffffffffffffffff021916908373ffffffffffffffffffffffffffffffffffffffff16021790555082600160006101000a81548173ffffffffffffffffffffffffffffffffffffffff021916908373ffffffffffffffffffffffffffffffffffffffff16021790555081600381905550806004819055506000600a60006101000a81548160ff0219169083600581111561015757fe5b02179055505050506114e58061016e6000396000f3fe6080604052600436106101405760003560e01c80636f85c7e4116100b6578063a6b513ee1161006f578063a6b513ee146105a7578063c062f578146105d2578063d9f8a4e21461060b578063dd9dd68814610636578063df8de3e714610661578063dfb2866d146106b257610140565b80636f85c7e414610420578063753ed1bd1461044b5780638da5cb5b146104765780639939b8b2146104cd5780639cf5453d14610524578063a3c2c4621461057c57610140565b806339f64b521161010857806339f64b52146102a657806348cd4cb1146102d1578063521eb273146102fc57806362ea82db1461035357806366d38203146103b85780636b64c7691461040957610140565b8063050e6cd71461014557806317f5de951461017e578063233967c3146101a95780633197cbb61461023657806336d02c9414610261575b600080fd5b34801561015157600080fd5b5061015a6106dd565b6040518082600581111561016a57fe5b60ff16815260200191505060405180910390f35b34801561018a57600080fd5b506101936106f0565b6040518082815260200191505060405180910390f35b3480156101b557600080fd5b506101f8600480360360208110156101cc57600080fd5b81019080803573ffffffffffffffffffffffffffffffffffffffff1690602001909291905050506106fd565b604051808681526020018581526020018415151515815260200183151515158152602001821515151581526020019550505050505060405180910390f35b34801561024257600080fd5b5061024b61075a565b6040518082815260200191505060405180910390f35b34801561026d57600080fd5b506102a46004803603604081101561028457600080fd5b810190808035906020019092919080359060200190929190505050610760565b005b3480156102b257600080fd5b506102bb610800565b6040518082815260200191505060405180910390f35b3480156102dd57600080fd5b506102e6610814565b6040518082815260200191505060405180910390f35b34801561030857600080fd5b5061031161081a565b604051808273ffffffffffffffffffffffffffffffffffffffff1673ffffffffffffffffffffffffffffffffffffffff16815260200191505060405180910390f35b34801561035f57600080fd5b506103a26004803603602081101561037657600080fd5b81019080803573ffffffffffffffffffffffffffffffffffffffff169060200190929190505050610840565b6040518082815260200191505060405180910390f35b3480156103c457600080fd5b50610407600480360360208110156103db57600080fd5b81019080803573ffffffffffffffffffffffffffffffffffffffff169060200190929190505050610858565b005b34801561041557600080fd5b5061041e610a74565b005b34801561042c57600080fd5b50610435610b2f565b6040518082815260200191505060405180910390f35b34801561045757600080fd5b50610460610b35565b6040518082815260200191505060405180910390f35b34801561048257600080fd5b5061048b610b3b565b604051808273ffffffffffffffffffffffffffffffffffffffff1673ffffffffffffffffffffffffffffffffffffffff16815260200191505060405180910390f35b3480156104d957600080fd5b506104e2610b61565b604051808273ffffffffffffffffffffffffffffffffffffffff1673ffffffffffffffffffffffffffffffffffffffff16815260200191505060405180910390f35b6105666004803603602081101561053a57600080fd5b81019080803573ffffffffffffffffffffffffffffffffffffffff169060200190929190505050610b86565b6040518082815260200191505060405180910390f35b34801561058857600080fd5b50610591610e29565b6040518082815260200191505060405180910390f35b3480156105b357600080fd5b506105bc610e2f565b6040518082815260200191505060405180910390f35b3480156105de57600080fd5b506105e7610e35565b604051808260058111156105f757fe5b60ff16815260200191505060405180910390f35b34801561061757600080fd5b50610620610f01565b6040518082815260200191505060405180910390f35b34801561064257600080fd5b5061064b61102e565b6040518082815260200191505060405180910390f35b34801561066d57600080fd5b506106b06004803603602081101561068457600080fd5b81019080803573ffffffffffffffffffffffffffffffffffffffff169060200190929190505050611057565b005b3480156106be57600080fd5b506106c7611320565b6040518082815260200191505060405180910390f35b600a60009054906101000a900460ff1681565b6801158e460913d0000081565b600b6020528060005260406000206000915090508060000154908060010154908060020160009054906101000a900460ff16908060020160019054906101000a900460ff16908060020160029054906101000a900460ff16905085565b60065481565b600160009054906101000a900473ffffffffffffffffffffffffffffffffffffffff1673ffffffffffffffffffffffffffffffffffffffff163373ffffffffffffffffffffffffffffffffffffffff16146107ba57600080fd5b60018060058111156107c857fe5b600a60009054906101000a900460ff1660058111156107e357fe5b146107ed57600080fd5b8260038190555081600481905550505050565b600060055443036004540260035403905090565b60055481565b600160009054906101000a900473ffffffffffffffffffffffffffffffffffffffff1681565b60096020528060005260406000206000915090505481565b600260009054906101000a900473ffffffffffffffffffffffffffffffffffffffff1673ffffffffffffffffffffffffffffffffffffffff163373ffffffffffffffffffffffffffffffffffffffff16146108b257600080fd5b60008060058111156108c057fe5b600a60009054906101000a900460ff1660058111156108db57fe5b146108e557600080fd5b600073ffffffffffffffffffffffffffffffffffffffff168273ffffffffffffffffffffffffffffffffffffffff16141561091f57600080fd5b816000806101000a81548173ffffffffffffffffffffffffffffffffffffffff021916908373ffffffffffffffffffffffffffffffffffffffff1602179055506801158e460913d000006000809054906101000a900473ffffffffffffffffffffffffffffffffffffffff1673ffffffffffffffffffffffffffffffffffffffff166370a08231846040518263ffffffff1660e01b8152600401808273ffffffffffffffffffffffffffffffffffffffff1673ffffffffffffffffffffffffffffffffffffffff16815260200191505060206040518083038186803b158015610a0757600080fd5b505afa158015610a1b573d6000803e3d6000fd5b505050506040513d6020811015610a3157600080fd5b810190808051906020019092919050505014610a4c57600080fd5b6001600a60006101000a81548160ff02191690836005811115610a6b57fe5b02179055505050565b600160009054906101000a900473ffffffffffffffffffffffffffffffffffffffff1673ffffffffffffffffffffffffffffffffffffffff163373ffffffffffffffffffffffffffffffffffffffff1614610ace57600080fd5b6001806005811115610adc57fe5b600a60009054906101000a900460ff166005811115610af757fe5b14610b0157600080fd5b6002600a60006101000a81548160ff02191690836005811115610b2057fe5b02179055504360058190555050565b6104b081565b60035481565b600260009054906101000a900473ffffffffffffffffffffffffffffffffffffffff1681565b6000809054906101000a900473ffffffffffffffffffffffffffffffffffffffff1681565b600060046000369050118015610ba0575060246000369050105b610ba957600080fd5b60026005811115610bb657fe5b600a60009054906101000a900460ff166005811115610bd157fe5b148015610bec5750610be161102e565b610be9610800565b11155b15610bfa57610bf9611326565b5b60036005811115610c0757fe5b600a60009054906101000a900460ff166005811115610c2257fe5b148015610c3457506104b06006540142115b15610e24576004600a60006101000a81548160ff02191690836005811115610c5857fe5b02179055506002806005811115610c6b57fe5b600a60009054906101000a900460ff166005811115610c8657fe5b14610c9057600080fd5b600073ffffffffffffffffffffffffffffffffffffffff168373ffffffffffffffffffffffffffffffffffffffff161415610cc9573392505b3491506000600754610cd9610800565b670de0b6b3a76400006801158e460913d0000081610cf357fe5b04020390506000831480610d5b5750600160009054906101000a900473ffffffffffffffffffffffffffffffffffffffff1673ffffffffffffffffffffffffffffffffffffffff166108fc849081150290604051600060405180830381858888f19350505050155b15610d6557600080fd5b82600960008673ffffffffffffffffffffffffffffffffffffffff1673ffffffffffffffffffffffffffffffffffffffff168152602001908152602001600020600082825401925050819055508260076000828254019250508190555082811415610dd357610dd2611326565b5b8373ffffffffffffffffffffffffffffffffffffffff167f9c89e828e6cee6374b68147c9e753e41746aad98ba255a527a4fc0ac1868bff9846040518082815260200191505060405180910390a250505b919050565b60075481565b60085481565b600060026005811115610e4457fe5b600a60009054906101000a900460ff166005811115610e5f57fe5b148015610e7a5750610e6f61102e565b610e77610800565b11155b15610e8857610e87611326565b5b60036005811115610e9557fe5b600a60009054906101000a900460ff166005811115610eb057fe5b148015610ec257506104b06006540142115b15610efe576004600a60006101000a81548160ff02191690836005811115610ee657fe5b0217905550600a60009054906101000a900460ff1690505b90565b600060026005811115610f1057fe5b600a60009054906101000a900460ff166005811115610f2b57fe5b148015610f465750610f3b61102e565b610f43610800565b11155b15610f5457610f53611326565b5b60036005811115610f6157fe5b600a60009054906101000a900460ff166005811115610f7c57fe5b148015610f8e57506104b06006540142115b1561102b576004600a60006101000a81548160ff02191690836005811115610fb257fe5b021790555060036005811115610fc457fe5b600a60009054906101000a900460ff166005811115610fdf57fe5b1480611010575060046005811115610ff357fe5b600a60009054906101000a900460ff16600581111561100e57fe5b145b1561101f57600854905061102a565b611027610800565b90505b5b90565b600060016801158e460913d00000670de0b6b3a7640000600754028161105057fe5b0401905090565b6004600036905011801561106f575060246000369050105b61107857600080fd5b6002600581111561108557fe5b600a60009054906101000a900460ff1660058111156110a057fe5b1480156110bb57506110b061102e565b6110b8610800565b11155b156110c9576110c8611326565b5b600360058111156110d657fe5b600a60009054906101000a900460ff1660058111156110f157fe5b14801561110357506104b06006540142115b1561131d576004600a60006101000a81548160ff0219169083600581111561112757fe5b0217905550600480600581111561113a57fe5b600a60009054906101000a900460ff16600581111561115557fe5b1461115f57600080fd5b600073ffffffffffffffffffffffffffffffffffffffff168273ffffffffffffffffffffffffffffffffffffffff161415611198573391505b6000600854670de0b6b3a7640000600960008673ffffffffffffffffffffffffffffffffffffffff1673ffffffffffffffffffffffffffffffffffffffff1681526020019081526020016000205402816111ee57fe5b0490506000600960008573ffffffffffffffffffffffffffffffffffffffff1673ffffffffffffffffffffffffffffffffffffffff168152602001908152602001600020819055506000809054906101000a900473ffffffffffffffffffffffffffffffffffffffff1673ffffffffffffffffffffffffffffffffffffffff1663a9059cbb84836040518363ffffffff1660e01b8152600401808373ffffffffffffffffffffffffffffffffffffffff1673ffffffffffffffffffffffffffffffffffffffff16815260200182815260200192505050602060405180830381600087803b1580156112de57600080fd5b505af11580156112f2573d6000803e3d6000fd5b505050506040513d602081101561130857600080fd5b81019080805190602001909291905050505050505b50565b60045481565b6003600a60006101000a81548160ff0219169083600581111561134557fe5b021790555060035460075414156113695761135e610800565b600881905550611378565b61137161102e565b6008819055505b6000600854670de0b6b3a7640000600754028161139157fe5b0490506000809054906101000a900473ffffffffffffffffffffffffffffffffffffffff1673ffffffffffffffffffffffffffffffffffffffff1663a9059cbb600160009054906101000a900473ffffffffffffffffffffffffffffffffffffffff16836801158e460913d00000036040518363ffffffff1660e01b8152600401808373ffffffffffffffffffffffffffffffffffffffff1673ffffffffffffffffffffffffffffffffffffffff16815260200182815260200192505050602060405180830381600087803b15801561146957600080fd5b505af115801561147d573d6000803e3d6000fd5b505050506040513d602081101561149357600080fd5b810190808051906020019092919050505050426006819055505056fea2646970667358221220159ccf22d165e85b1f2f2d5361af7b61c81142aa8b4dc1ad3e0374dd430b31bc64736f6c63430006080033",
  "immutableReferences": {},
  "source": "//SPDX-License-Identifier: UNLICENSED\r\npragma solidity ^0.6.0;\r\nimport \"./GLDToken.sol\";\r\n\r\ncontract DutchAuction {\r\n  //events\r\n  event BidSubmission(address indexed sender, uint256 amount);\r\n\r\n  //constants\r\n  uint constant public MAX_TOKENS_SOLD = 20 * 10**18; //20 tokens\r\n  uint constant public WAITING_PERIOD = 20 minutes;\r\n\r\n  //storage\r\n  GLDToken public gldToken;\r\n  address public wallet;\r\n  address public owner;\r\n  uint public ceiling;\r\n  uint public priceFactor;\r\n  uint public startBlock;\r\n  uint public endTime;\r\n  uint public totalReceived;\r\n  uint public finalPrice;\r\n  mapping (address => uint) public bids;\r\n\r\n  enum Stages {\r\n    AuctionDeployed,\r\n    AuctionSetUp,\r\n    AuctionStarted,\r\n    AuctionEnded,\r\n    TradingStarted,\r\n    TokensDistributed\r\n  }\r\n\r\n  Stages public current_stage;\r\n\r\n  modifier atStage(Stages _stage) {\r\n    require(current_stage == _stage);\r\n    _;\r\n  }\r\n\r\n  struct Bid {\r\n    uint256 price;\r\n    uint256 transfer;\r\n    bool placed;\r\n    bool claimed;\r\n    bool isBitcoin;\r\n  }\r\n\r\n  mapping (address => Bid) public bids2;\r\n\r\n  modifier isOwner() {\r\n    require(msg.sender == owner); //only owner allowed to proceed\r\n    _;\r\n  }\r\n\r\n  modifier isWallet() {\r\n    require(msg.sender == wallet); //only wallet allowed to proceed\r\n    _;\r\n  }\r\n\r\n  modifier isValidPayLoad() {\r\n    require(msg.data.length > 4 && msg.data.length < 36);\r\n    _;\r\n  }\r\n\r\n  modifier timedTransactions() {\r\n    if(current_stage == Stages.AuctionStarted && calcTokenPrice() <= calcStopPrice()){\r\n      finalizeAuction();\r\n    }\r\n    if(current_stage == Stages.AuctionEnded && now > endTime + WAITING_PERIOD){\r\n      current_stage = Stages.TradingStarted;\r\n      _;\r\n    }\r\n  }\r\n\r\n  constructor(address _wallet, uint _ceiling, uint _priceFactor) public{\r\n    if (_wallet == address(0) || _ceiling == 0 || _priceFactor == 0){\r\n      revert();\r\n    }\r\n    owner = msg.sender;\r\n    wallet = _wallet;\r\n    ceiling = _ceiling;\r\n    priceFactor = _priceFactor;\r\n    current_stage = Stages.AuctionDeployed;\r\n  }\r\n\r\n  function setup (address _gldToken) public isOwner atStage(Stages.AuctionDeployed){\r\n    if(_gldToken == address(0x0)){\r\n      revert();\r\n    }\r\n    gldToken = GLDToken(_gldToken);\r\n    //validdate token balance\r\n    if (gldToken.balanceOf(_gldToken) != MAX_TOKENS_SOLD){\r\n      revert();\r\n    }\r\n    current_stage = Stages.AuctionSetUp;\r\n  }\r\n\r\n  function startAuction() public isWallet atStage(Stages.AuctionSetUp){\r\n    current_stage = Stages.AuctionStarted;\r\n    startBlock = block.number;\r\n  }\r\n\r\n  function changeSettings(uint _ceiling, uint _priceFactor) public isWallet atStage(Stages.AuctionSetUp){\r\n    ceiling = _ceiling;\r\n    priceFactor = _priceFactor;\r\n  }\r\n\r\n  function calcCurrentTokenPrice() public timedTransactions returns (uint){\r\n    if(current_stage == Stages.AuctionEnded || current_stage == Stages.TradingStarted){\r\n      return finalPrice;\r\n    }\r\n    return calcTokenPrice();\r\n  }\r\n\r\n  function updateStage() public timedTransactions returns (Stages){\r\n    return current_stage;\r\n  }\r\n\r\n  function bid (address receiver) public payable isValidPayLoad timedTransactions atStage(Stages.AuctionStarted) returns (uint amount){\r\n    //if bid is done by ShapeShift, receiver address is set \r\n    if(receiver == address(0)){\r\n      receiver = msg.sender;\r\n    }\r\n    amount = msg.value;\r\n    // // Prevent that more than 90% of tokens are sold. Only relevant if cap not reached.\r\n    uint maxWei = (MAX_TOKENS_SOLD / 10**18) * calcTokenPrice() - totalReceived;\r\n    // uint maxWeiBasedOnTotalReceived = ceiling - totalReceived;\r\n    // if (maxWeiBasedOnTotalReceived < maxWei){\r\n    //   maxWei = maxWeiBasedOnTotalReceived;\r\n    // }\r\n\r\n    // //only invest maximum possible amount\r\n    // if(amount > maxWei){\r\n    //   amount = maxWei;\r\n    //   // Send change back to receiver address. In case of a ShapeShift bid the user receives the change back directly.\r\n    //     if (!receiver.send(msg.value - amount))\r\n    //         // Sending failed\r\n    //         throw;\r\n    // }\r\n\r\n    // Forward funding to ether wallet\r\n    if (amount == 0 || !payable(wallet).send(amount))\r\n      // No amount sent or sending failed\r\n      revert();\r\n    \r\n    bids[receiver] += amount;\r\n    totalReceived += amount;\r\n\r\n    if (maxWei == amount)\r\n      // When maxWei is equal to the big amount the auction is ended and finalizeAuction is triggered.\r\n      finalizeAuction();\r\n\r\n    BidSubmission(receiver, amount);\r\n  }\r\n\r\n  function claimTokens(address receiver) public isValidPayLoad timedTransactions atStage(Stages.TradingStarted){\r\n    if(receiver == address(0))\r\n      receiver = msg.sender;\r\n    uint tokenCount = bids[receiver] * 10**18 / finalPrice;\r\n    bids[receiver] = 0;\r\n    gldToken.transfer(receiver, tokenCount);\r\n  }\r\n\r\n  function calcStopPrice() view public returns(uint){\r\n    return totalReceived * 10**18 / MAX_TOKENS_SOLD + 1;\r\n  }\r\n\r\n  function calcTokenPrice() view public returns(uint){\r\n    return ceiling - priceFactor*(block.number - startBlock);\r\n  }\r\n\r\n  function finalizeAuction() private {\r\n    current_stage = Stages.AuctionEnded;\r\n    if(totalReceived == ceiling){\r\n      finalPrice = calcTokenPrice();\r\n    } else{\r\n      finalPrice = calcStopPrice();\r\n    }\r\n    uint soldTokens = totalReceived * 10**18 / finalPrice;\r\n    // Auction contract transfers all unsold tokens to inventory multisig\r\n    gldToken.transfer(wallet, MAX_TOKENS_SOLD - soldTokens);\r\n    endTime = now;\r\n  }\r\n}\r\n",
  "sourcePath": "D:/Documents(D)/Computer Science Year 3 Sem 1/CZ4153 Blockchain Technology/Project/DutchAuction/backend/contracts/DutchAuction.sol",
  "compiler": {
    "name": "solc",
    "version": "0.6.8+commit.0bbfe453.Emscripten.clang"
  },
  "schemaVersion": "3.3.1",
  "updatedAt": "2020-10-30T10:15:51.141Z",
  "devdoc": {
    "methods": {}
  },
  "userdoc": {
    "methods": {}
  }
}