{
  "contractName": "DutchAuction",
  "abi": [
    {
      "inputs": [
        {
          "internalType": "address payable",
          "name": "_wallet",
          "type": "address"
        },
        {
          "internalType": "uint256",
          "name": "_numOfTokens",
          "type": "uint256"
        },
        {
          "internalType": "uint256",
          "name": "_startingTokenPrice",
          "type": "uint256"
        },
        {
          "internalType": "uint256",
          "name": "_priceFactor",
          "type": "uint256"
        }
      ],
      "stateMutability": "nonpayable",
      "type": "constructor"
    },
    {
      "anonymous": false,
      "inputs": [
        {
          "indexed": true,
          "internalType": "address",
          "name": "sender",
          "type": "address"
        },
        {
          "indexed": false,
          "internalType": "uint256",
          "name": "amount",
          "type": "uint256"
        },
        {
          "indexed": false,
          "internalType": "uint256",
          "name": "currentPrice",
          "type": "uint256"
        }
      ],
      "name": "BidSubmission",
      "type": "event"
    },
    {
      "inputs": [],
      "name": "WAITING_PERIOD",
      "outputs": [
        {
          "internalType": "uint256",
          "name": "",
          "type": "uint256"
        }
      ],
      "stateMutability": "view",
      "type": "function",
      "constant": true
    },
    {
      "inputs": [
        {
          "internalType": "address",
          "name": "",
          "type": "address"
        }
      ],
      "name": "bids",
      "outputs": [
        {
          "internalType": "uint256",
          "name": "",
          "type": "uint256"
        }
      ],
      "stateMutability": "view",
      "type": "function",
      "constant": true
    },
    {
      "inputs": [],
      "name": "finalPrice",
      "outputs": [
        {
          "internalType": "uint256",
          "name": "",
          "type": "uint256"
        }
      ],
      "stateMutability": "view",
      "type": "function",
      "constant": true
    },
    {
      "inputs": [],
      "name": "gldToken",
      "outputs": [
        {
          "internalType": "contract GLDToken",
          "name": "",
          "type": "address"
        }
      ],
      "stateMutability": "view",
      "type": "function",
      "constant": true
    },
    {
      "inputs": [],
      "name": "maxTokensSold",
      "outputs": [
        {
          "internalType": "uint256",
          "name": "",
          "type": "uint256"
        }
      ],
      "stateMutability": "view",
      "type": "function",
      "constant": true
    },
    {
      "inputs": [],
      "name": "owner",
      "outputs": [
        {
          "internalType": "address",
          "name": "",
          "type": "address"
        }
      ],
      "stateMutability": "view",
      "type": "function",
      "constant": true
    },
    {
      "inputs": [],
      "name": "priceFactor",
      "outputs": [
        {
          "internalType": "uint256",
          "name": "",
          "type": "uint256"
        }
      ],
      "stateMutability": "view",
      "type": "function",
      "constant": true
    },
    {
      "inputs": [],
      "name": "stage",
      "outputs": [
        {
          "internalType": "enum DutchAuction.Stages",
          "name": "",
          "type": "uint8"
        }
      ],
      "stateMutability": "view",
      "type": "function",
      "constant": true
    },
    {
      "inputs": [],
      "name": "startTime",
      "outputs": [
        {
          "internalType": "uint256",
          "name": "",
          "type": "uint256"
        }
      ],
      "stateMutability": "view",
      "type": "function",
      "constant": true
    },
    {
      "inputs": [],
      "name": "startingTokenPrice",
      "outputs": [
        {
          "internalType": "uint256",
          "name": "",
          "type": "uint256"
        }
      ],
      "stateMutability": "view",
      "type": "function",
      "constant": true
    },
    {
      "inputs": [],
      "name": "totalReceived",
      "outputs": [
        {
          "internalType": "uint256",
          "name": "",
          "type": "uint256"
        }
      ],
      "stateMutability": "view",
      "type": "function",
      "constant": true
    },
    {
      "inputs": [],
      "name": "wallet",
      "outputs": [
        {
          "internalType": "address payable",
          "name": "",
          "type": "address"
        }
      ],
      "stateMutability": "view",
      "type": "function",
      "constant": true
    },
    {
      "inputs": [
        {
          "internalType": "address",
          "name": "_gldToken",
          "type": "address"
        }
      ],
      "name": "setup",
      "outputs": [],
      "stateMutability": "nonpayable",
      "type": "function"
    },
    {
      "inputs": [],
      "name": "startAuction",
      "outputs": [],
      "stateMutability": "nonpayable",
      "type": "function"
    },
    {
      "inputs": [
        {
          "internalType": "uint256",
          "name": "_startingTokenPrice",
          "type": "uint256"
        },
        {
          "internalType": "uint256",
          "name": "_priceFactor",
          "type": "uint256"
        }
      ],
      "name": "changeSettings",
      "outputs": [],
      "stateMutability": "nonpayable",
      "type": "function"
    },
    {
      "inputs": [],
      "name": "calcCurrentTokenPrice",
      "outputs": [
        {
          "internalType": "uint256",
          "name": "",
          "type": "uint256"
        }
      ],
      "stateMutability": "view",
      "type": "function",
      "constant": true
    },
    {
      "inputs": [],
      "name": "updateStage",
      "outputs": [
        {
          "internalType": "enum DutchAuction.Stages",
          "name": "",
          "type": "uint8"
        }
      ],
      "stateMutability": "nonpayable",
      "type": "function"
    },
    {
      "inputs": [],
      "name": "getStartingPrice",
      "outputs": [
        {
          "internalType": "uint256",
          "name": "",
          "type": "uint256"
        }
      ],
      "stateMutability": "view",
      "type": "function",
      "constant": true
    },
    {
      "inputs": [],
      "name": "getPriceFactor",
      "outputs": [
        {
          "internalType": "uint256",
          "name": "",
          "type": "uint256"
        }
      ],
      "stateMutability": "view",
      "type": "function",
      "constant": true
    },
    {
      "inputs": [],
      "name": "getMaxTokens",
      "outputs": [
        {
          "internalType": "uint256",
          "name": "",
          "type": "uint256"
        }
      ],
      "stateMutability": "view",
      "type": "function",
      "constant": true
    },
    {
      "inputs": [
        {
          "internalType": "address",
          "name": "receiver",
          "type": "address"
        }
      ],
      "name": "getUserFinalTokens",
      "outputs": [
        {
          "internalType": "uint256",
          "name": "",
          "type": "uint256"
        }
      ],
      "stateMutability": "nonpayable",
      "type": "function"
    },
    {
      "inputs": [
        {
          "internalType": "address",
          "name": "receiver",
          "type": "address"
        }
      ],
      "name": "getUserExpectedTokens",
      "outputs": [
        {
          "internalType": "uint256",
          "name": "",
          "type": "uint256"
        }
      ],
      "stateMutability": "nonpayable",
      "type": "function"
    },
    {
      "inputs": [
        {
          "internalType": "address",
          "name": "receiver",
          "type": "address"
        }
      ],
      "name": "getUserBidAmount",
      "outputs": [
        {
          "internalType": "uint256",
          "name": "",
          "type": "uint256"
        }
      ],
      "stateMutability": "nonpayable",
      "type": "function"
    },
    {
      "inputs": [
        {
          "internalType": "address payable",
          "name": "receiver",
          "type": "address"
        }
      ],
      "name": "bid",
      "outputs": [
        {
          "internalType": "uint256",
          "name": "amount",
          "type": "uint256"
        }
      ],
      "stateMutability": "payable",
      "type": "function",
      "payable": true
    },
    {
      "inputs": [
        {
          "internalType": "address",
          "name": "receiver",
          "type": "address"
        }
      ],
      "name": "claimTokens",
      "outputs": [],
      "stateMutability": "nonpayable",
      "type": "function"
    },
    {
      "inputs": [],
      "name": "calcStopPrice",
      "outputs": [
        {
          "internalType": "uint256",
          "name": "",
          "type": "uint256"
        }
      ],
      "stateMutability": "view",
      "type": "function",
      "constant": true
    },
    {
      "inputs": [],
      "name": "calcTokenPrice",
      "outputs": [
        {
          "internalType": "uint256",
          "name": "",
          "type": "uint256"
        }
      ],
      "stateMutability": "view",
      "type": "function",
      "constant": true
    },
    {
      "inputs": [],
      "name": "calcUnsoldTokens",
      "outputs": [
        {
          "internalType": "uint256",
          "name": "",
          "type": "uint256"
        }
      ],
      "stateMutability": "view",
      "type": "function",
      "constant": true
    }
  ],
  "bytecode": "0x60806040523480156200001157600080fd5b50604051620023de380380620023de833981810160405260808110156200003757600080fd5b8101908080519060200190929190805190602001909291908051906020019092919080519060200190929190505050600073ffffffffffffffffffffffffffffffffffffffff168473ffffffffffffffffffffffffffffffffffffffff161480620000a25750600083145b80620000ae5750600082145b80620000ba5750600081145b156200012e576040517f08c379a00000000000000000000000000000000000000000000000000000000081526004018080602001828103825260158152602001807f636f6e7374727563746f722061726773206e756c6c000000000000000000000081525060200191505060405180910390fd5b33600260006101000a81548173ffffffffffffffffffffffffffffffffffffffff021916908373ffffffffffffffffffffffffffffffffffffffff16021790555083600160006101000a81548173ffffffffffffffffffffffffffffffffffffffff021916908373ffffffffffffffffffffffffffffffffffffffff160217905550670de0b6b3a7640000830260048190555081600381905550806005819055506000600a60006101000a81548160ff02191690836004811115620001ef57fe5b0217905550505050506121d680620002086000396000f3fe6080604052600436106101b75760003560e01c80638da5cb5b116100ec578063cebd31bc1161008a578063df8de3e711610064578063df8de3e71461076b578063dfb2866d146107bc578063e2294415146107e7578063fd28d64b14610812576101b7565b8063cebd31bc146106ea578063d9f8a4e214610715578063dd9dd68814610740576101b7565b8063a3c2c462116100c6578063a3c2c46214610622578063a6b513ee1461064d578063c040e6b814610678578063c062f578146106b1576101b7565b80638da5cb5b1461051c5780639939b8b2146105735780639cf5453d146105ca576101b7565b806362ea82db116101595780636b64c769116101335780636b64c7691461044a5780636f85c7e41461046157806378e979251461048c5780637de60e07146104b7576101b7565b806362ea82db1461036957806366d38203146103ce5780636abcded11461041f576101b7565b80634d606d13116101955780634d606d13146102575780634f4e8f5514610282578063521eb273146102e757806353a47d381461033e576101b7565b806311f58e99146101bc57806336d02c94146101e757806339f64b521461022c575b600080fd5b3480156101c857600080fd5b506101d1610877565b6040518082815260200191505060405180910390f35b3480156101f357600080fd5b5061022a6004803603604081101561020a57600080fd5b81019080803590602001909291908035906020019092919050505061087d565b005b34801561023857600080fd5b506102416109ef565b6040518082815260200191505060405180910390f35b34801561026357600080fd5b5061026c610a26565b6040518082815260200191505060405180910390f35b34801561028e57600080fd5b506102d1600480360360208110156102a557600080fd5b81019080803573ffffffffffffffffffffffffffffffffffffffff169060200190929190505050610a2c565b6040518082815260200191505060405180910390f35b3480156102f357600080fd5b506102fc610bc5565b604051808273ffffffffffffffffffffffffffffffffffffffff1673ffffffffffffffffffffffffffffffffffffffff16815260200191505060405180910390f35b34801561034a57600080fd5b50610353610beb565b6040518082815260200191505060405180910390f35b34801561037557600080fd5b506103b86004803603602081101561038c57600080fd5b81019080803573ffffffffffffffffffffffffffffffffffffffff169060200190929190505050610c64565b6040518082815260200191505060405180910390f35b3480156103da57600080fd5b5061041d600480360360208110156103f157600080fd5b81019080803573ffffffffffffffffffffffffffffffffffffffff169060200190929190505050610c7c565b005b34801561042b57600080fd5b50610434611035565b6040518082815260200191505060405180910390f35b34801561045657600080fd5b5061045f61103f565b005b34801561046d57600080fd5b506104766111cc565b6040518082815260200191505060405180910390f35b34801561049857600080fd5b506104a16111d2565b6040518082815260200191505060405180910390f35b3480156104c357600080fd5b50610506600480360360208110156104da57600080fd5b81019080803573ffffffffffffffffffffffffffffffffffffffff1690602001909291905050506111d8565b6040518082815260200191505060405180910390f35b34801561052857600080fd5b5061053161131a565b604051808273ffffffffffffffffffffffffffffffffffffffff1673ffffffffffffffffffffffffffffffffffffffff16815260200191505060405180910390f35b34801561057f57600080fd5b50610588611340565b604051808273ffffffffffffffffffffffffffffffffffffffff1673ffffffffffffffffffffffffffffffffffffffff16815260200191505060405180910390f35b61060c600480360360208110156105e057600080fd5b81019080803573ffffffffffffffffffffffffffffffffffffffff169060200190929190505050611365565b6040518082815260200191505060405180910390f35b34801561062e57600080fd5b50610637611866565b6040518082815260200191505060405180910390f35b34801561065957600080fd5b5061066261186c565b6040518082815260200191505060405180910390f35b34801561068457600080fd5b5061068d611872565b6040518082600481111561069d57fe5b60ff16815260200191505060405180910390f35b3480156106bd57600080fd5b506106c6611885565b604051808260048111156106d657fe5b60ff16815260200191505060405180910390f35b3480156106f657600080fd5b506106ff611980565b6040518082815260200191505060405180910390f35b34801561072157600080fd5b5061072a61198a565b6040518082815260200191505060405180910390f35b34801561074c57600080fd5b50610755611a38565b6040518082815260200191505060405180910390f35b34801561077757600080fd5b506107ba6004803603602081101561078e57600080fd5b81019080803573ffffffffffffffffffffffffffffffffffffffff169060200190929190505050611a77565b005b3480156107c857600080fd5b506107d1611e4e565b6040518082815260200191505060405180910390f35b3480156107f357600080fd5b506107fc611e54565b6040518082815260200191505060405180910390f35b34801561081e57600080fd5b506108616004803603602081101561083557600080fd5b81019080803573ffffffffffffffffffffffffffffffffffffffff169060200190929190505050611e5e565b6040518082815260200191505060405180910390f35b60045481565b600160009054906101000a900473ffffffffffffffffffffffffffffffffffffffff1673ffffffffffffffffffffffffffffffffffffffff163373ffffffffffffffffffffffffffffffffffffffff1614610940576040517f08c379a000000000000000000000000000000000000000000000000000000000815260040180806020018281038252600b8152602001807f77616c6c6574206f6e6c7900000000000000000000000000000000000000000081525060200191505060405180910390fd5b600180600481111561094e57fe5b600a60009054906101000a900460ff16600481111561096957fe5b146109dc576040517f08c379a000000000000000000000000000000000000000000000000000000000815260040180806020018281038252600b8152602001807f77726f6e6720737461676500000000000000000000000000000000000000000081525060200191505060405180910390fd5b8260038190555081600581905550505050565b600080603c600654420381610a0057fe5b046005540290506003548110610a1a576001915050610a23565b80600354039150505b90565b60035481565b600060026004811115610a3b57fe5b600a60009054906101000a900460ff166004811115610a5657fe5b148015610a715750610a66611a38565b610a6e6109ef565b11155b8015610aa05750610a80610beb565b670de0b6b3a7640000610a9161198a565b0260075481610a9c57fe5b0410155b15610aae57610aad611fee565b5b60036004811115610abb57fe5b600a60009054906101000a900460ff166004811115610ad657fe5b148015610ae857506104b06006540142115b15610b12576004600a60006101000a81548160ff02191690836004811115610b0c57fe5b02179055505b6000600960008473ffffffffffffffffffffffffffffffffffffffff1673ffffffffffffffffffffffffffffffffffffffff168152602001908152602001600020541415610b635760009050610bc0565b670de0b6b3a7640000610b7461198a565b02600960008473ffffffffffffffffffffffffffffffffffffffff1673ffffffffffffffffffffffffffffffffffffffff1681526020019081526020016000205481610bbc57fe5b0490505b919050565b600160009054906101000a900473ffffffffffffffffffffffffffffffffffffffff1681565b6000670de0b6b3a764000060045481610c0057fe5b04670de0b6b3a7640000610c1261198a565b0260075481610c1d57fe5b0410610c2c5760009050610c61565b670de0b6b3a7640000610c3d61198a565b0260075481610c4857fe5b04670de0b6b3a764000060045481610c5c57fe5b040390505b90565b60096020528060005260406000206000915090505481565b600260009054906101000a900473ffffffffffffffffffffffffffffffffffffffff1673ffffffffffffffffffffffffffffffffffffffff163373ffffffffffffffffffffffffffffffffffffffff1614610d3f576040517f08c379a000000000000000000000000000000000000000000000000000000000815260040180806020018281038252600a8152602001807f6f776e6572206f6e6c790000000000000000000000000000000000000000000081525060200191505060405180910390fd5b6000806004811115610d4d57fe5b600a60009054906101000a900460ff166004811115610d6857fe5b14610ddb576040517f08c379a000000000000000000000000000000000000000000000000000000000815260040180806020018281038252600b8152602001807f77726f6e6720737461676500000000000000000000000000000000000000000081525060200191505060405180910390fd5b600073ffffffffffffffffffffffffffffffffffffffff168273ffffffffffffffffffffffffffffffffffffffff161415610e7e576040517f08c379a000000000000000000000000000000000000000000000000000000000815260040180806020018281038252601a8152602001807f676f6c6420746f6b656e2061646472657373206973206e756c6c00000000000081525060200191505060405180910390fd5b816000806101000a81548173ffffffffffffffffffffffffffffffffffffffff021916908373ffffffffffffffffffffffffffffffffffffffff1602179055506004546000809054906101000a900473ffffffffffffffffffffffffffffffffffffffff1673ffffffffffffffffffffffffffffffffffffffff166370a08231306040518263ffffffff1660e01b8152600401808273ffffffffffffffffffffffffffffffffffffffff1673ffffffffffffffffffffffffffffffffffffffff16815260200191505060206040518083038186803b158015610f5f57600080fd5b505afa158015610f73573d6000803e3d6000fd5b505050506040513d6020811015610f8957600080fd5b81019080805190602001909291905050501461100d576040517f08c379a00000000000000000000000000000000000000000000000000000000081526004018080602001828103825260158152602001807f696e76616c696420746f6b656e2062616c616e6365000000000000000000000081525060200191505060405180910390fd5b6001600a60006101000a81548160ff0219169083600481111561102c57fe5b02179055505050565b6000600454905090565b600160009054906101000a900473ffffffffffffffffffffffffffffffffffffffff1673ffffffffffffffffffffffffffffffffffffffff163373ffffffffffffffffffffffffffffffffffffffff1614611102576040517f08c379a000000000000000000000000000000000000000000000000000000000815260040180806020018281038252600b8152602001807f77616c6c6574206f6e6c7900000000000000000000000000000000000000000081525060200191505060405180910390fd5b600180600481111561111057fe5b600a60009054906101000a900460ff16600481111561112b57fe5b1461119e576040517f08c379a000000000000000000000000000000000000000000000000000000000815260040180806020018281038252600b8152602001807f77726f6e6720737461676500000000000000000000000000000000000000000081525060200191505060405180910390fd5b6002600a60006101000a81548160ff021916908360048111156111bd57fe5b02179055504260068190555050565b6104b081565b60065481565b6000600260048111156111e757fe5b600a60009054906101000a900460ff16600481111561120257fe5b14801561121d5750611212611a38565b61121a6109ef565b11155b801561124c575061122c610beb565b670de0b6b3a764000061123d61198a565b026007548161124857fe5b0410155b1561125a57611259611fee565b5b6003600481111561126757fe5b600a60009054906101000a900460ff16600481111561128257fe5b14801561129457506104b06006540142115b156112be576004600a60006101000a81548160ff021916908360048111156112b857fe5b02179055505b670de0b6b3a764000060085402600960008473ffffffffffffffffffffffffffffffffffffffff1673ffffffffffffffffffffffffffffffffffffffff168152602001908152602001600020548161131257fe5b049050919050565b600260009054906101000a900473ffffffffffffffffffffffffffffffffffffffff1681565b6000809054906101000a900473ffffffffffffffffffffffffffffffffffffffff1681565b6000600460003690501415801561138157506024600036905014155b156113f4576040517f08c379a00000000000000000000000000000000000000000000000000000000081526004018080602001828103825260118152602001807f6e6f742076616c6964207061796c6f616400000000000000000000000000000081525060200191505060405180910390fd5b6002600481111561140157fe5b600a60009054906101000a900460ff16600481111561141c57fe5b148015611437575061142c611a38565b6114346109ef565b11155b80156114665750611446610beb565b670de0b6b3a764000061145761198a565b026007548161146257fe5b0410155b1561147457611473611fee565b5b6003600481111561148157fe5b600a60009054906101000a900460ff16600481111561149c57fe5b1480156114ae57506104b06006540142115b156114d8576004600a60006101000a81548160ff021916908360048111156114d257fe5b02179055505b60028060048111156114e657fe5b600a60009054906101000a900460ff16600481111561150157fe5b14611574576040517f08c379a000000000000000000000000000000000000000000000000000000000815260040180806020018281038252600b8152602001807f77726f6e6720737461676500000000000000000000000000000000000000000081525060200191505060405180910390fd5b600073ffffffffffffffffffffffffffffffffffffffff168373ffffffffffffffffffffffffffffffffffffffff1614156115ad573392505b34915060006115ba610beb565b90506000670de0b6b3a76400006115cf61198a565b0284816115d857fe5b049050670de0b6b3a76400006115ec61198a565b8302028411156116be576000670de0b6b3a764000061160961198a565b840202850390508573ffffffffffffffffffffffffffffffffffffffff166108fc829081150290604051600060405180830381858888f193505050506116b7576040517f08c379a000000000000000000000000000000000000000000000000000000000815260040180806020018281038252601a8152602001807f73656e64696e67206368616e6765206261636b206661696c656400000000000081525060200191505060405180910390fd5b8085039450505b60008414806117215750600160009054906101000a900473ffffffffffffffffffffffffffffffffffffffff1673ffffffffffffffffffffffffffffffffffffffff166108fc859081150290604051600060405180830381858888f19350505050155b15611794576040517f08c379a00000000000000000000000000000000000000000000000000000000081526004018080602001828103825260188152602001807f73656e64696e6720746f2077616c6c6574206661696c6564000000000000000081525060200191505060405180910390fd5b83600960008773ffffffffffffffffffffffffffffffffffffffff1673ffffffffffffffffffffffffffffffffffffffff168152602001908152602001600020600082825401925050819055508360076000828254019250508190555081811061180157611800611fee565b5b8473ffffffffffffffffffffffffffffffffffffffff167fc9c6176cbf7c0a8c29655fe8ccbe5e28382ca11459d145223308723bfc6975458561184261198a565b604051808381526020018281526020019250505060405180910390a2505050919050565b60075481565b60085481565b600a60009054906101000a900460ff1681565b60006002600481111561189457fe5b600a60009054906101000a900460ff1660048111156118af57fe5b1480156118ca57506118bf611a38565b6118c76109ef565b11155b80156118f957506118d9610beb565b670de0b6b3a76400006118ea61198a565b02600754816118f557fe5b0410155b1561190757611906611fee565b5b6003600481111561191457fe5b600a60009054906101000a900460ff16600481111561192f57fe5b14801561194157506104b06006540142115b1561196b576004600a60006101000a81548160ff0219169083600481111561196557fe5b02179055505b600a60009054906101000a900460ff16905090565b6000600354905090565b60006003600481111561199957fe5b600a60009054906101000a900460ff1660048111156119b457fe5b14806119e457506004808111156119c757fe5b600a60009054906101000a900460ff1660048111156119e257fe5b145b156119f3576008549050611a35565b60026004811115611a0057fe5b600a60009054906101000a900460ff166004811115611a1b57fe5b14611a2a576003549050611a35565b611a326109ef565b90505b90565b6000600354600554603c6104b081611a4c57fe5b040210611a5c5760019050611a74565b600554603c6104b081611a6b57fe5b04026003540390505b90565b6004600036905014158015611a9157506024600036905014155b15611b04576040517f08c379a00000000000000000000000000000000000000000000000000000000081526004018080602001828103825260118152602001807f6e6f742076616c6964207061796c6f616400000000000000000000000000000081525060200191505060405180910390fd5b60026004811115611b1157fe5b600a60009054906101000a900460ff166004811115611b2c57fe5b148015611b475750611b3c611a38565b611b446109ef565b11155b8015611b765750611b56610beb565b670de0b6b3a7640000611b6761198a565b0260075481611b7257fe5b0410155b15611b8457611b83611fee565b5b60036004811115611b9157fe5b600a60009054906101000a900460ff166004811115611bac57fe5b148015611bbe57506104b06006540142115b15611be8576004600a60006101000a81548160ff02191690836004811115611be257fe5b02179055505b6004806004811115611bf657fe5b600a60009054906101000a900460ff166004811115611c1157fe5b14611c84576040517f08c379a000000000000000000000000000000000000000000000000000000000815260040180806020018281038252600b8152602001807f77726f6e6720737461676500000000000000000000000000000000000000000081525060200191505060405180910390fd5b600073ffffffffffffffffffffffffffffffffffffffff168273ffffffffffffffffffffffffffffffffffffffff161415611cbd573391505b6000670de0b6b3a764000060085402600960008573ffffffffffffffffffffffffffffffffffffffff1673ffffffffffffffffffffffffffffffffffffffff1681526020019081526020016000205481611d1357fe5b0490506000600960008573ffffffffffffffffffffffffffffffffffffffff1673ffffffffffffffffffffffffffffffffffffffff168152602001908152602001600020819055506000809054906101000a900473ffffffffffffffffffffffffffffffffffffffff1673ffffffffffffffffffffffffffffffffffffffff1663a9059cbb84670de0b6b3a764000084026040518363ffffffff1660e01b8152600401808373ffffffffffffffffffffffffffffffffffffffff1673ffffffffffffffffffffffffffffffffffffffff16815260200182815260200192505050602060405180830381600087803b158015611e0d57600080fd5b505af1158015611e21573d6000803e3d6000fd5b505050506040513d6020811015611e3757600080fd5b810190808051906020019092919050505050505050565b60055481565b6000600554905090565b600060026004811115611e6d57fe5b600a60009054906101000a900460ff166004811115611e8857fe5b148015611ea35750611e98611a38565b611ea06109ef565b11155b8015611ed25750611eb2610beb565b670de0b6b3a7640000611ec361198a565b0260075481611ece57fe5b0410155b15611ee057611edf611fee565b5b60036004811115611eed57fe5b600a60009054906101000a900460ff166004811115611f0857fe5b148015611f1a57506104b06006540142115b15611f44576004600a60006101000a81548160ff02191690836004811115611f3e57fe5b02179055505b6000600960008473ffffffffffffffffffffffffffffffffffffffff1673ffffffffffffffffffffffffffffffffffffffff168152602001908152602001600020541415611f955760009050611fe9565b670de0b6b3a7640000600960008473ffffffffffffffffffffffffffffffffffffffff1673ffffffffffffffffffffffffffffffffffffffff1681526020019081526020016000205481611fe557fe5b0490505b919050565b6003600a60006101000a81548160ff0219169083600481111561200d57fe5b021790555061201a611a38565b6120226109ef565b1161203a5761202f611a38565b600881905550612049565b6120426109ef565b6008819055505b6000670de0b6b3a7640000600854026007548161206257fe5b0490506000809054906101000a900473ffffffffffffffffffffffffffffffffffffffff1673ffffffffffffffffffffffffffffffffffffffff1663a9059cbb600160009054906101000a900473ffffffffffffffffffffffffffffffffffffffff16670de0b6b3a76400008402600454036040518363ffffffff1660e01b8152600401808373ffffffffffffffffffffffffffffffffffffffff1673ffffffffffffffffffffffffffffffffffffffff16815260200182815260200192505050602060405180830381600087803b15801561213d57600080fd5b505af1158015612151573d6000803e3d6000fd5b505050506040513d602081101561216757600080fd5b8101908080519060200190929190505050506004600a60006101000a81548160ff0219169083600481111561219857fe5b02179055505056fea2646970667358221220aedf6b1f8bc2f77a9500d10ee68d49d5e30ad136d7843bbef76ffad17c2fbd0764736f6c63430006080033",
  "immutableReferences": {},
  "source": "pragma solidity ^0.6.0;\r\nimport \"./GLDToken.sol\";\r\n\r\ncontract DutchAuction {\r\n  //events\r\n  event BidSubmission(address indexed sender, uint256 amount, uint256 currentPrice);\r\n  \r\n  //constant\r\n  //uint constant public MAX_TOKENS_SOLD = 10*10**18; // 10 Tokens\r\n  uint constant public WAITING_PERIOD = 20 minutes;\r\n\r\n  GLDToken public gldToken;\r\n  address payable public wallet; // the wallet that owns the tokens at first\r\n  address public owner; // the owner's address\r\n  uint public startingTokenPrice; // in eth\r\n  uint public maxTokensSold; // number of tokens put on sale\r\n  uint public priceFactor; // decrease rate in eth\r\n  uint public startTime;\r\n  uint public totalReceived; //this is in wei\r\n  uint public finalPrice; // in eth\r\n  mapping (address => uint) public bids; // to remain the claim of each participant in wei\r\n  Stages public stage; //current stage\r\n\r\n  enum Stages {\r\n      AuctionDeployed,\r\n      AuctionSetUp,\r\n      AuctionStarted,\r\n      AuctionEnded,\r\n      TradingStarted\r\n  }\r\n\r\n  //modifiers\r\n  modifier atStage(Stages _stage) {\r\n      if (stage != _stage)\r\n          // Contract not in expected state\r\n          revert(\"wrong stage\");\r\n      _;\r\n  }\r\n\r\n  modifier isOwner() {\r\n      if (msg.sender != owner)\r\n          // Only owner is allowed to proceed\r\n          revert(\"owner only\");\r\n      _;\r\n  }\r\n\r\n  modifier isWallet() {\r\n      if (msg.sender != wallet)\r\n          // Only wallet is allowed to proceed\r\n          revert(\"wallet only\");\r\n      _;\r\n  }\r\n\r\n  modifier isValidPayload() {\r\n      if (msg.data.length != 4 && msg.data.length != 36)\r\n          revert(\"not valid payload\");\r\n      _;\r\n  }\r\n\r\n  modifier timedTransitions() {\r\n      if (stage == Stages.AuctionStarted && calcTokenPrice() <= calcStopPrice() && totalReceived/(calcCurrentTokenPrice()*10**18) >= calcUnsoldTokens())\r\n          finalizeAuction();\r\n      if (stage == Stages.AuctionEnded && now > startTime + WAITING_PERIOD) // after 20 mins \r\n          stage = Stages.TradingStarted;\r\n      _;\r\n  }\r\n\r\n  //functions\r\n  /// @dev Contract constructor function sets owner.\r\n  /// @param _wallet Gnosis GLDTokens wallet.\r\n  /// @param _startingTokenPrice Auction starting price.\r\n  /// @param _priceFactor Auction price factor.\r\n  constructor(address payable _wallet, uint _numOfTokens, uint _startingTokenPrice, uint _priceFactor)\r\n      public\r\n  {\r\n      if (_wallet == address(0x0) || _numOfTokens == 0 ||_startingTokenPrice == 0 || _priceFactor == 0)\r\n          // Arguments are null.\r\n          revert(\"constructor args null\");\r\n      owner = msg.sender;\r\n      wallet = _wallet;\r\n      maxTokensSold = _numOfTokens *10**18; // in wei\r\n      startingTokenPrice = _startingTokenPrice; // in eth\r\n      priceFactor = _priceFactor; // in eth\r\n      stage = Stages.AuctionDeployed;\r\n  }\r\n\r\n  /// @dev Setup function sets external contracts' addresses, for this case the GLDToken.\r\n  /// @param _gldToken Gnosis gldToken address.\r\n  function setup(address _gldToken)\r\n      public\r\n      isOwner\r\n      atStage(Stages.AuctionDeployed)\r\n  {\r\n      if (_gldToken == address(0x0))\r\n          // Argument is null.\r\n          revert(\"gold token address is null\");\r\n      gldToken = GLDToken(_gldToken);\r\n      // Validate token balance\r\n      if (gldToken.balanceOf(address(this)) != maxTokensSold) \r\n          revert(\"invalid token balance\");\r\n      stage = Stages.AuctionSetUp;\r\n  }\r\n\r\n  /// @dev Starts auction and sets startTime.\r\n  function startAuction()\r\n      public\r\n      isWallet\r\n      atStage(Stages.AuctionSetUp)\r\n  {\r\n      stage = Stages.AuctionStarted;\r\n      startTime = now;\r\n  }\r\n\r\n  /// @dev Changes auction starting price and start price factor before auction is started.\r\n  /// @param _startingTokenPrice Updated auction startingTokenPrice.\r\n  /// @param _priceFactor Updated start price factor.\r\n  function changeSettings(uint _startingTokenPrice, uint _priceFactor)\r\n      public\r\n      isWallet\r\n      atStage(Stages.AuctionSetUp)\r\n  {\r\n      startingTokenPrice = _startingTokenPrice;\r\n      priceFactor = _priceFactor;\r\n  }\r\n\r\n  /// @dev Calculates current token price in ETH.\r\n  /// @return Returns token price.\r\n  function calcCurrentTokenPrice()\r\n      view\r\n      public\r\n      returns (uint)\r\n  {\r\n      if (stage == Stages.AuctionEnded || stage == Stages.TradingStarted)\r\n          return finalPrice;\r\n      if( stage != Stages.AuctionStarted){\r\n          return startingTokenPrice;\r\n      }\r\n      return calcTokenPrice();\r\n  }\r\n\r\n  /// @dev Returns correct stage, even if a function with timedTransitions modifier has not yet been called yet.\r\n  /// @return Returns current auction stage.\r\n  function updateStage()\r\n      public\r\n      timedTransitions\r\n      returns (Stages)\r\n  {\r\n      return stage;\r\n  }\r\n\r\n  /// @dev Returns startingPrice in ETH.\r\n  /// @return Returns startingPrice in ETH.\r\n  function getStartingPrice()\r\n        view\r\n        public\r\n        returns(uint)\r\n    {\r\n        return startingTokenPrice;\r\n    }\r\n\r\n  /// @dev Returns startingPrice in ETH.\r\n  /// @return Returns startingPrice in ETH.\r\n  function getPriceFactor()\r\n        view\r\n        public\r\n        returns(uint)\r\n    {\r\n        return priceFactor;\r\n    }\r\n\r\n  /// @dev Returns number of Tokens used in this auction.\r\n  /// @return Returns maxTokens.\r\n  function getMaxTokens()\r\n        view\r\n        public\r\n        returns(uint)\r\n    {\r\n        return maxTokensSold;\r\n    }\r\n\r\n  /// @dev Returns number of Tokens used in this auction.\r\n  /// @return Returns maxTokens.\r\n  function getUserFinalTokens(address receiver)\r\n        public\r\n        timedTransitions\r\n        returns(uint)\r\n    {\r\n        return bids[receiver]/(finalPrice * 10**18);\r\n    }\r\n\r\n  /// @dev Returns number of Tokens used in this auction.\r\n  /// @return Returns maxTokens.\r\n  function getUserExpectedTokens(address receiver)\r\n        public\r\n        timedTransitions\r\n        returns(uint)\r\n    {\r\n        if(bids[receiver] == 0){\r\n            return 0;\r\n        }\r\n        return bids[receiver]/(calcCurrentTokenPrice() * 10**18);\r\n    }\r\n\r\n  /// @dev Returns number current user's bidded amount\r\n  /// @return Returns bidded amount in ETH.\r\n  function getUserBidAmount(address receiver)\r\n        public\r\n        timedTransitions\r\n        returns(uint)\r\n    {\r\n        if(bids[receiver] == 0){\r\n            return 0;\r\n        }\r\n        return bids[receiver]/10**18;\r\n    }\r\n\r\n  /// @dev Allows to send a bid to the auction.\r\n  /// @param receiver Bid will be assigned to this address if set.\r\n  function bid(address payable receiver)\r\n      public\r\n      payable\r\n      isValidPayload\r\n      timedTransitions\r\n      atStage(Stages.AuctionStarted)\r\n      returns (uint amount)\r\n  {\r\n      // If a bid is done on behalf of a user via ShapeShift, the receiver address is set.\r\n      if (receiver == address(0x0))\r\n          receiver = msg.sender;\r\n      amount = msg.value;\r\n      uint unsoldTokens = calcUnsoldTokens();\r\n      uint wantBuy = amount/(calcCurrentTokenPrice()*10**18); \r\n      // getting change\r\n      if (amount > unsoldTokens * calcCurrentTokenPrice()*10**18) {\r\n          uint refund = amount - unsoldTokens * calcCurrentTokenPrice()*10**18;\r\n          if (!receiver.send(refund)){\r\n              // Sending failed\r\n              revert(\"sending change back failed\");\r\n          }\r\n          amount = amount - refund; //to pay for the tokens\r\n      }\r\n\r\n      // Forward funding to ether wallet\r\n      if (amount == 0 || !wallet.send(amount))\r\n          // No amount sent or sending failed\r\n          revert(\"sending to wallet failed\");\r\n      bids[receiver] += amount; // remember the claim of each participant in wei\r\n      totalReceived += amount; // amount of money earned\r\n      if (wantBuy >= unsoldTokens)\r\n          // When maxWei is equal to the big amount the auction is ended and finalizeAuction is triggered.\r\n          finalizeAuction();\r\n      BidSubmission(receiver, amount, calcCurrentTokenPrice());\r\n  }\r\n\r\n  /// @dev Claims tokens for bidder after auction.\r\n  /// @param receiver Tokens will be assigned to this address if set.\r\n  function claimTokens(address receiver)\r\n      public\r\n      isValidPayload\r\n      timedTransitions\r\n      atStage(Stages.TradingStarted)\r\n  {\r\n      if (receiver == address(0x0))\r\n          receiver = msg.sender;\r\n      uint tokenCount = bids[receiver]/(finalPrice * 10**18);\r\n      bids[receiver] = 0;\r\n      gldToken.transfer(receiver, tokenCount * 10**18);\r\n  }\r\n\r\n  /// @dev Calculates stop price in ETH.\r\n  /// @return Returns stop price.\r\n  function calcStopPrice()\r\n      view\r\n      public\r\n      returns (uint)\r\n  {\r\n      if((WAITING_PERIOD/60)*priceFactor >= startingTokenPrice){\r\n          return 1;\r\n      }\r\n      return startingTokenPrice - (WAITING_PERIOD/60)*priceFactor;\r\n  }\r\n\r\n  /// @dev Calculates token price in ETH. Drops every second.\r\n  /// @return Returns token price.\r\n  function calcTokenPrice()\r\n      view\r\n      public\r\n      returns (uint)\r\n  {\r\n      uint tempMinusPrice =  priceFactor * ((now - startTime)/60);\r\n      if(tempMinusPrice >= startingTokenPrice){\r\n          return 1;\r\n      }\r\n      return startingTokenPrice - tempMinusPrice;\r\n  }\r\n\r\n  /// @dev Return tokens not sold yet in the auction.\r\n  /// @return returns number of tokens in the token unit\r\n  function calcUnsoldTokens()\r\n        view\r\n        public\r\n        returns (uint)\r\n    {\r\n        if(totalReceived/(calcCurrentTokenPrice()*10**18) >= maxTokensSold/(10**18))\r\n            return 0;\r\n        return maxTokensSold/(10**18) - totalReceived/(calcCurrentTokenPrice()*10**18) ;\r\n    }\r\n  \r\n  // private function\r\n  // Gets to final price and returns the unsold tokens back to owner\r\n  function finalizeAuction()\r\n      private\r\n  {\r\n      stage = Stages.AuctionEnded;\r\n      if(calcTokenPrice() <= calcStopPrice()){\r\n          finalPrice = calcStopPrice();\r\n      }else{\r\n          finalPrice = calcTokenPrice(); \r\n      }\r\n      \r\n      uint soldTokens = totalReceived/(finalPrice* 10**18);\r\n      // Auction contract transfers all unsold tokens to Gnosis inventory multisig\r\n      gldToken.transfer(wallet, maxTokensSold - soldTokens * 10**18);\r\n      stage = Stages.TradingStarted;\r\n  }\r\n}",
  "sourcePath": "D:/Documents(D)/Computer Science Year 3 Sem 1/CZ4153 Blockchain Technology/Project/DutchAuction/src/contracts/DutchAuction.sol",
  "compiler": {
    "name": "solc",
    "version": "0.6.8+commit.0bbfe453.Emscripten.clang"
  },
  "schemaVersion": "3.3.1",
  "updatedAt": "2020-11-04T09:20:24.904Z",
  "networkType": "ethereum",
  "devdoc": {
    "methods": {
      "bid(address)": {
        "details": "Allows to send a bid to the auction.",
        "params": {
          "receiver": "Bid will be assigned to this address if set."
        }
      },
      "calcCurrentTokenPrice()": {
        "details": "Calculates current token price in ETH.",
        "returns": {
          "_0": "Returns token price."
        }
      },
      "calcStopPrice()": {
        "details": "Calculates stop price in ETH.",
        "returns": {
          "_0": "Returns stop price."
        }
      },
      "calcTokenPrice()": {
        "details": "Calculates token price in ETH. Drops every second.",
        "returns": {
          "_0": "Returns token price."
        }
      },
      "calcUnsoldTokens()": {
        "details": "Return tokens not sold yet in the auction.",
        "returns": {
          "_0": "returns number of tokens in the token unit"
        }
      },
      "changeSettings(uint256,uint256)": {
        "details": "Changes auction starting price and start price factor before auction is started.",
        "params": {
          "_priceFactor": "Updated start price factor.",
          "_startingTokenPrice": "Updated auction startingTokenPrice."
        }
      },
      "claimTokens(address)": {
        "details": "Claims tokens for bidder after auction.",
        "params": {
          "receiver": "Tokens will be assigned to this address if set."
        }
      },
      "constructor": {
        "details": "Contract constructor function sets owner.",
        "params": {
          "_priceFactor": "Auction price factor.",
          "_startingTokenPrice": "Auction starting price.",
          "_wallet": "Gnosis GLDTokens wallet."
        }
      },
      "getMaxTokens()": {
        "details": "Returns number of Tokens used in this auction.",
        "returns": {
          "_0": "Returns maxTokens."
        }
      },
      "getPriceFactor()": {
        "details": "Returns startingPrice in ETH.",
        "returns": {
          "_0": "Returns startingPrice in ETH."
        }
      },
      "getStartingPrice()": {
        "details": "Returns startingPrice in ETH.",
        "returns": {
          "_0": "Returns startingPrice in ETH."
        }
      },
      "getUserBidAmount(address)": {
        "details": "Returns number current user's bidded amount",
        "returns": {
          "_0": "Returns bidded amount in ETH."
        }
      },
      "getUserExpectedTokens(address)": {
        "details": "Returns number of Tokens used in this auction.",
        "returns": {
          "_0": "Returns maxTokens."
        }
      },
      "getUserFinalTokens(address)": {
        "details": "Returns number of Tokens used in this auction.",
        "returns": {
          "_0": "Returns maxTokens."
        }
      },
      "setup(address)": {
        "details": "Setup function sets external contracts' addresses, for this case the GLDToken.",
        "params": {
          "_gldToken": "Gnosis gldToken address."
        }
      },
      "startAuction()": {
        "details": "Starts auction and sets startTime."
      },
      "updateStage()": {
        "details": "Returns correct stage, even if a function with timedTransitions modifier has not yet been called yet.",
        "returns": {
          "_0": "Returns current auction stage."
        }
      }
    }
  },
  "userdoc": {
    "methods": {}
  }
}