{
  "contractName": "DutchAuction",
  "abi": [
    {
      "inputs": [
        {
          "internalType": "address payable",
          "name": "_wallet",
          "type": "address"
        },
        {
          "internalType": "uint256",
          "name": "_numOfTokens",
          "type": "uint256"
        },
        {
          "internalType": "uint256",
          "name": "_startingTokenPrice",
          "type": "uint256"
        },
        {
          "internalType": "uint256",
          "name": "_priceFactor",
          "type": "uint256"
        }
      ],
      "stateMutability": "nonpayable",
      "type": "constructor"
    },
    {
      "anonymous": false,
      "inputs": [
        {
          "indexed": true,
          "internalType": "address",
          "name": "sender",
          "type": "address"
        },
        {
          "indexed": false,
          "internalType": "uint256",
          "name": "amount",
          "type": "uint256"
        }
      ],
      "name": "BidSubmission",
      "type": "event"
    },
    {
      "inputs": [],
      "name": "WAITING_PERIOD",
      "outputs": [
        {
          "internalType": "uint256",
          "name": "",
          "type": "uint256"
        }
      ],
      "stateMutability": "view",
      "type": "function",
      "constant": true
    },
    {
      "inputs": [
        {
          "internalType": "address",
          "name": "",
          "type": "address"
        }
      ],
      "name": "bids",
      "outputs": [
        {
          "internalType": "uint256",
          "name": "",
          "type": "uint256"
        }
      ],
      "stateMutability": "view",
      "type": "function",
      "constant": true
    },
    {
      "inputs": [],
      "name": "endTime",
      "outputs": [
        {
          "internalType": "uint256",
          "name": "",
          "type": "uint256"
        }
      ],
      "stateMutability": "view",
      "type": "function",
      "constant": true
    },
    {
      "inputs": [],
      "name": "finalPrice",
      "outputs": [
        {
          "internalType": "uint256",
          "name": "",
          "type": "uint256"
        }
      ],
      "stateMutability": "view",
      "type": "function",
      "constant": true
    },
    {
      "inputs": [],
      "name": "gldToken",
      "outputs": [
        {
          "internalType": "contract GLDToken",
          "name": "",
          "type": "address"
        }
      ],
      "stateMutability": "view",
      "type": "function",
      "constant": true
    },
    {
      "inputs": [],
      "name": "maxTokensSold",
      "outputs": [
        {
          "internalType": "uint256",
          "name": "",
          "type": "uint256"
        }
      ],
      "stateMutability": "view",
      "type": "function",
      "constant": true
    },
    {
      "inputs": [],
      "name": "owner",
      "outputs": [
        {
          "internalType": "address",
          "name": "",
          "type": "address"
        }
      ],
      "stateMutability": "view",
      "type": "function",
      "constant": true
    },
    {
      "inputs": [],
      "name": "priceFactor",
      "outputs": [
        {
          "internalType": "uint256",
          "name": "",
          "type": "uint256"
        }
      ],
      "stateMutability": "view",
      "type": "function",
      "constant": true
    },
    {
      "inputs": [],
      "name": "stage",
      "outputs": [
        {
          "internalType": "enum DutchAuction.Stages",
          "name": "",
          "type": "uint8"
        }
      ],
      "stateMutability": "view",
      "type": "function",
      "constant": true
    },
    {
      "inputs": [],
      "name": "startBlock",
      "outputs": [
        {
          "internalType": "uint256",
          "name": "",
          "type": "uint256"
        }
      ],
      "stateMutability": "view",
      "type": "function",
      "constant": true
    },
    {
      "inputs": [],
      "name": "startTime",
      "outputs": [
        {
          "internalType": "uint256",
          "name": "",
          "type": "uint256"
        }
      ],
      "stateMutability": "view",
      "type": "function",
      "constant": true
    },
    {
      "inputs": [],
      "name": "startingTokenPrice",
      "outputs": [
        {
          "internalType": "uint256",
          "name": "",
          "type": "uint256"
        }
      ],
      "stateMutability": "view",
      "type": "function",
      "constant": true
    },
    {
      "inputs": [],
      "name": "totalReceived",
      "outputs": [
        {
          "internalType": "uint256",
          "name": "",
          "type": "uint256"
        }
      ],
      "stateMutability": "view",
      "type": "function",
      "constant": true
    },
    {
      "inputs": [],
      "name": "wallet",
      "outputs": [
        {
          "internalType": "address payable",
          "name": "",
          "type": "address"
        }
      ],
      "stateMutability": "view",
      "type": "function",
      "constant": true
    },
    {
      "inputs": [
        {
          "internalType": "address",
          "name": "_gldToken",
          "type": "address"
        }
      ],
      "name": "setup",
      "outputs": [],
      "stateMutability": "nonpayable",
      "type": "function"
    },
    {
      "inputs": [],
      "name": "startAuction",
      "outputs": [],
      "stateMutability": "nonpayable",
      "type": "function"
    },
    {
      "inputs": [
        {
          "internalType": "uint256",
          "name": "_startingTokenPrice",
          "type": "uint256"
        },
        {
          "internalType": "uint256",
          "name": "_priceFactor",
          "type": "uint256"
        }
      ],
      "name": "changeSettings",
      "outputs": [],
      "stateMutability": "nonpayable",
      "type": "function"
    },
    {
      "inputs": [],
      "name": "calcCurrentTokenPrice",
      "outputs": [
        {
          "internalType": "uint256",
          "name": "",
          "type": "uint256"
        }
      ],
      "stateMutability": "view",
      "type": "function",
      "constant": true
    },
    {
      "inputs": [],
      "name": "updateStage",
      "outputs": [
        {
          "internalType": "enum DutchAuction.Stages",
          "name": "",
          "type": "uint8"
        }
      ],
      "stateMutability": "nonpayable",
      "type": "function"
    },
    {
      "inputs": [],
      "name": "getMaxTokens",
      "outputs": [
        {
          "internalType": "uint256",
          "name": "",
          "type": "uint256"
        }
      ],
      "stateMutability": "view",
      "type": "function",
      "constant": true
    },
    {
      "inputs": [
        {
          "internalType": "address payable",
          "name": "receiver",
          "type": "address"
        }
      ],
      "name": "bid",
      "outputs": [
        {
          "internalType": "uint256",
          "name": "amount",
          "type": "uint256"
        }
      ],
      "stateMutability": "payable",
      "type": "function",
      "payable": true
    },
    {
      "inputs": [
        {
          "internalType": "address",
          "name": "receiver",
          "type": "address"
        }
      ],
      "name": "claimTokens",
      "outputs": [],
      "stateMutability": "nonpayable",
      "type": "function"
    },
    {
      "inputs": [],
      "name": "calcStopPrice",
      "outputs": [
        {
          "internalType": "uint256",
          "name": "",
          "type": "uint256"
        }
      ],
      "stateMutability": "view",
      "type": "function",
      "constant": true
    },
    {
      "inputs": [],
      "name": "calcTokenPrice",
      "outputs": [
        {
          "internalType": "uint256",
          "name": "",
          "type": "uint256"
        }
      ],
      "stateMutability": "view",
      "type": "function",
      "constant": true
    }
  ],
  "bytecode": "0x608060405234801561001057600080fd5b50604051611b00380380611b008339818101604052608081101561003357600080fd5b8101908080519060200190929190805190602001909291908051906020019092919080519060200190929190505050600073ffffffffffffffffffffffffffffffffffffffff168473ffffffffffffffffffffffffffffffffffffffff16148061009d5750600083145b806100a85750600082145b806100b35750600081145b15610126576040517f08c379a00000000000000000000000000000000000000000000000000000000081526004018080602001828103825260158152602001807f636f6e7374727563746f722061726773206e756c6c000000000000000000000081525060200191505060405180910390fd5b33600260006101000a81548173ffffffffffffffffffffffffffffffffffffffff021916908373ffffffffffffffffffffffffffffffffffffffff16021790555083600160006101000a81548173ffffffffffffffffffffffffffffffffffffffff021916908373ffffffffffffffffffffffffffffffffffffffff160217905550670de0b6b3a7640000830260048190555081600381905550806005819055506000600c60006101000a81548160ff021916908360048111156101e657fe5b021790555050505050611902806101fe6000396000f3fe60806040526004361061014b5760003560e01c806378e97925116100b6578063c040e6b81161006f578063c040e6b81461056d578063c062f578146105a6578063d9f8a4e2146105df578063dd9dd6881461060a578063df8de3e714610635578063dfb2866d146106865761014b565b806378e97925146103e65780638da5cb5b146104115780639939b8b2146104685780639cf5453d146104bf578063a3c2c46214610517578063a6b513ee146105425761014b565b8063521eb27311610108578063521eb2731461026c57806362ea82db146102c357806366d38203146103285780636abcded1146103795780636b64c769146103a45780636f85c7e4146103bb5761014b565b806311f58e99146101505780633197cbb61461017b57806336d02c94146101a657806339f64b52146101eb57806348cd4cb1146102165780634d606d1314610241575b600080fd5b34801561015c57600080fd5b506101656106b1565b6040518082815260200191505060405180910390f35b34801561018757600080fd5b506101906106b7565b6040518082815260200191505060405180910390f35b3480156101b257600080fd5b506101e9600480360360408110156101c957600080fd5b8101908080359060200190929190803590602001909291905050506106bd565b005b3480156101f757600080fd5b5061020061082f565b6040518082815260200191505060405180910390f35b34801561022257600080fd5b5061022b610866565b6040518082815260200191505060405180910390f35b34801561024d57600080fd5b5061025661086c565b6040518082815260200191505060405180910390f35b34801561027857600080fd5b50610281610872565b604051808273ffffffffffffffffffffffffffffffffffffffff1673ffffffffffffffffffffffffffffffffffffffff16815260200191505060405180910390f35b3480156102cf57600080fd5b50610312600480360360208110156102e657600080fd5b81019080803573ffffffffffffffffffffffffffffffffffffffff169060200190929190505050610898565b6040518082815260200191505060405180910390f35b34801561033457600080fd5b506103776004803603602081101561034b57600080fd5b81019080803573ffffffffffffffffffffffffffffffffffffffff1690602001909291905050506108b0565b005b34801561038557600080fd5b5061038e610c69565b6040518082815260200191505060405180910390f35b3480156103b057600080fd5b506103b9610c73565b005b3480156103c757600080fd5b506103d0610e07565b6040518082815260200191505060405180910390f35b3480156103f257600080fd5b506103fb610e0d565b6040518082815260200191505060405180910390f35b34801561041d57600080fd5b50610426610e13565b604051808273ffffffffffffffffffffffffffffffffffffffff1673ffffffffffffffffffffffffffffffffffffffff16815260200191505060405180910390f35b34801561047457600080fd5b5061047d610e39565b604051808273ffffffffffffffffffffffffffffffffffffffff1673ffffffffffffffffffffffffffffffffffffffff16815260200191505060405180910390f35b610501600480360360208110156104d557600080fd5b81019080803573ffffffffffffffffffffffffffffffffffffffff169060200190929190505050610e5e565b6040518082815260200191505060405180910390f35b34801561052357600080fd5b5061052c611293565b6040518082815260200191505060405180910390f35b34801561054e57600080fd5b50610557611299565b6040518082815260200191505060405180910390f35b34801561057957600080fd5b5061058261129f565b6040518082600481111561059257fe5b60ff16815260200191505060405180910390f35b3480156105b257600080fd5b506105bb6112b2565b604051808260048111156105cb57fe5b60ff16815260200191505060405180910390f35b3480156105eb57600080fd5b506105f461131a565b6040518082815260200191505060405180910390f35b34801561061657600080fd5b5061061f611391565b6040518082815260200191505060405180910390f35b34801561064157600080fd5b506106846004803603602081101561065857600080fd5b81019080803573ffffffffffffffffffffffffffffffffffffffff1690602001909291905050506113d0565b005b34801561069257600080fd5b5061069b611714565b6040518082815260200191505060405180910390f35b60045481565b60085481565b600160009054906101000a900473ffffffffffffffffffffffffffffffffffffffff1673ffffffffffffffffffffffffffffffffffffffff163373ffffffffffffffffffffffffffffffffffffffff1614610780576040517f08c379a000000000000000000000000000000000000000000000000000000000815260040180806020018281038252600b8152602001807f77616c6c6574206f6e6c7900000000000000000000000000000000000000000081525060200191505060405180910390fd5b600180600481111561078e57fe5b600c60009054906101000a900460ff1660048111156107a957fe5b1461081c576040517f08c379a000000000000000000000000000000000000000000000000000000000815260040180806020018281038252600b8152602001807f77726f6e6720737461676500000000000000000000000000000000000000000081525060200191505060405180910390fd5b8260038190555081600581905550505050565b600080603c60075442038161084057fe5b04600554029050600354811061085a576001915050610863565b80600354039150505b90565b60065481565b60035481565b600160009054906101000a900473ffffffffffffffffffffffffffffffffffffffff1681565b600b6020528060005260406000206000915090505481565b600260009054906101000a900473ffffffffffffffffffffffffffffffffffffffff1673ffffffffffffffffffffffffffffffffffffffff163373ffffffffffffffffffffffffffffffffffffffff1614610973576040517f08c379a000000000000000000000000000000000000000000000000000000000815260040180806020018281038252600a8152602001807f6f776e6572206f6e6c790000000000000000000000000000000000000000000081525060200191505060405180910390fd5b600080600481111561098157fe5b600c60009054906101000a900460ff16600481111561099c57fe5b14610a0f576040517f08c379a000000000000000000000000000000000000000000000000000000000815260040180806020018281038252600b8152602001807f77726f6e6720737461676500000000000000000000000000000000000000000081525060200191505060405180910390fd5b600073ffffffffffffffffffffffffffffffffffffffff168273ffffffffffffffffffffffffffffffffffffffff161415610ab2576040517f08c379a000000000000000000000000000000000000000000000000000000000815260040180806020018281038252601a8152602001807f676f6c6420746f6b656e2061646472657373206973206e756c6c00000000000081525060200191505060405180910390fd5b816000806101000a81548173ffffffffffffffffffffffffffffffffffffffff021916908373ffffffffffffffffffffffffffffffffffffffff1602179055506004546000809054906101000a900473ffffffffffffffffffffffffffffffffffffffff1673ffffffffffffffffffffffffffffffffffffffff166370a08231306040518263ffffffff1660e01b8152600401808273ffffffffffffffffffffffffffffffffffffffff1673ffffffffffffffffffffffffffffffffffffffff16815260200191505060206040518083038186803b158015610b9357600080fd5b505afa158015610ba7573d6000803e3d6000fd5b505050506040513d6020811015610bbd57600080fd5b810190808051906020019092919050505014610c41576040517f08c379a00000000000000000000000000000000000000000000000000000000081526004018080602001828103825260158152602001807f696e76616c696420746f6b656e2062616c616e6365000000000000000000000081525060200191505060405180910390fd5b6001600c60006101000a81548160ff02191690836004811115610c6057fe5b02179055505050565b6000600454905090565b600160009054906101000a900473ffffffffffffffffffffffffffffffffffffffff1673ffffffffffffffffffffffffffffffffffffffff163373ffffffffffffffffffffffffffffffffffffffff1614610d36576040517f08c379a000000000000000000000000000000000000000000000000000000000815260040180806020018281038252600b8152602001807f77616c6c6574206f6e6c7900000000000000000000000000000000000000000081525060200191505060405180910390fd5b6001806004811115610d4457fe5b600c60009054906101000a900460ff166004811115610d5f57fe5b14610dd2576040517f08c379a000000000000000000000000000000000000000000000000000000000815260040180806020018281038252600b8152602001807f77726f6e6720737461676500000000000000000000000000000000000000000081525060200191505060405180910390fd5b6002600c60006101000a81548160ff02191690836004811115610df157fe5b0217905550436006819055504260078190555050565b6104b081565b60075481565b600260009054906101000a900473ffffffffffffffffffffffffffffffffffffffff1681565b6000809054906101000a900473ffffffffffffffffffffffffffffffffffffffff1681565b60006004600036905014158015610e7a57506024600036905014155b15610eed576040517f08c379a00000000000000000000000000000000000000000000000000000000081526004018080602001828103825260118152602001807f6e6f742076616c6964207061796c6f616400000000000000000000000000000081525060200191505060405180910390fd5b60026004811115610efa57fe5b600c60009054906101000a900460ff166004811115610f1557fe5b148015610f305750610f25611391565b610f2d61082f565b11155b15610f3e57610f3d61171a565b5b6002806004811115610f4c57fe5b600c60009054906101000a900460ff166004811115610f6757fe5b14610fda576040517f08c379a000000000000000000000000000000000000000000000000000000000815260040180806020018281038252600b8152602001807f77726f6e6720737461676500000000000000000000000000000000000000000081525060200191505060405180910390fd5b600073ffffffffffffffffffffffffffffffffffffffff168373ffffffffffffffffffffffffffffffffffffffff161415611013573392505b3491506000600954670de0b6b3a764000061102c61082f565b670de0b6b3a76400006004548161103f57fe5b040202039050808311156110fa578092508373ffffffffffffffffffffffffffffffffffffffff166108fc8434039081150290604051600060405180830381858888f193505050506110f9576040517f08c379a000000000000000000000000000000000000000000000000000000000815260040180806020018281038252601a8152602001807f73656e64696e67206368616e6765206261636b206661696c656400000000000081525060200191505060405180910390fd5b5b600083148061115d5750600160009054906101000a900473ffffffffffffffffffffffffffffffffffffffff1673ffffffffffffffffffffffffffffffffffffffff166108fc849081150290604051600060405180830381858888f19350505050155b156111d0576040517f08c379a00000000000000000000000000000000000000000000000000000000081526004018080602001828103825260188152602001807f73656e64696e6720746f2077616c6c6574206661696c6564000000000000000081525060200191505060405180910390fd5b82600b60008673ffffffffffffffffffffffffffffffffffffffff1673ffffffffffffffffffffffffffffffffffffffff16815260200190815260200160002060008282540192505081905550826009600082825401925050819055508281141561123e5761123d61171a565b5b8373ffffffffffffffffffffffffffffffffffffffff167f9c89e828e6cee6374b68147c9e753e41746aad98ba255a527a4fc0ac1868bff9846040518082815260200191505060405180910390a25050919050565b60095481565b600a5481565b600c60009054906101000a900460ff1681565b6000600260048111156112c157fe5b600c60009054906101000a900460ff1660048111156112dc57fe5b1480156112f757506112ec611391565b6112f461082f565b11155b156113055761130461171a565b5b600c60009054906101000a900460ff16905090565b60006003600481111561132957fe5b600c60009054906101000a900460ff16600481111561134457fe5b1480611374575060048081111561135757fe5b600c60009054906101000a900460ff16600481111561137257fe5b145b1561138357600a54905061138e565b61138b61082f565b90505b90565b6000600354600554603c6104b0816113a557fe5b0402106113b557600190506113cd565b600554603c6104b0816113c457fe5b04026003540390505b90565b60046000369050141580156113ea57506024600036905014155b1561145d576040517f08c379a00000000000000000000000000000000000000000000000000000000081526004018080602001828103825260118152602001807f6e6f742076616c6964207061796c6f616400000000000000000000000000000081525060200191505060405180910390fd5b6002600481111561146a57fe5b600c60009054906101000a900460ff16600481111561148557fe5b1480156114a05750611495611391565b61149d61082f565b11155b156114ae576114ad61171a565b5b60048060048111156114bc57fe5b600c60009054906101000a900460ff1660048111156114d757fe5b1461154a576040517f08c379a000000000000000000000000000000000000000000000000000000000815260040180806020018281038252600b8152602001807f77726f6e6720737461676500000000000000000000000000000000000000000081525060200191505060405180910390fd5b600073ffffffffffffffffffffffffffffffffffffffff168273ffffffffffffffffffffffffffffffffffffffff161415611583573391505b6000670de0b6b3a7640000600a5402600b60008573ffffffffffffffffffffffffffffffffffffffff1673ffffffffffffffffffffffffffffffffffffffff16815260200190815260200160002054816115d957fe5b0490506000600b60008573ffffffffffffffffffffffffffffffffffffffff1673ffffffffffffffffffffffffffffffffffffffff168152602001908152602001600020819055506000809054906101000a900473ffffffffffffffffffffffffffffffffffffffff1673ffffffffffffffffffffffffffffffffffffffff1663a9059cbb84670de0b6b3a764000084026040518363ffffffff1660e01b8152600401808373ffffffffffffffffffffffffffffffffffffffff1673ffffffffffffffffffffffffffffffffffffffff16815260200182815260200192505050602060405180830381600087803b1580156116d357600080fd5b505af11580156116e7573d6000803e3d6000fd5b505050506040513d60208110156116fd57600080fd5b810190808051906020019092919050505050505050565b60055481565b6003600c60006101000a81548160ff0219169083600481111561173957fe5b0217905550611746611391565b61174e61082f565b116117665761175b611391565b600a81905550611775565b61176e61082f565b600a819055505b6000670de0b6b3a7640000600a54026009548161178e57fe5b0490506000809054906101000a900473ffffffffffffffffffffffffffffffffffffffff1673ffffffffffffffffffffffffffffffffffffffff1663a9059cbb600160009054906101000a900473ffffffffffffffffffffffffffffffffffffffff16670de0b6b3a76400008402600454036040518363ffffffff1660e01b8152600401808373ffffffffffffffffffffffffffffffffffffffff1673ffffffffffffffffffffffffffffffffffffffff16815260200182815260200192505050602060405180830381600087803b15801561186957600080fd5b505af115801561187d573d6000803e3d6000fd5b505050506040513d602081101561189357600080fd5b8101908080519060200190929190505050506004600c60006101000a81548160ff021916908360048111156118c457fe5b02179055505056fea26469706673582212203e95532ff9696e1e2dcbd229e81c79ac5b991987c09b0446c1af6dc3bfed46cc64736f6c63430006080033",
  "immutableReferences": {},
  "source": "pragma solidity ^0.6.0;\r\nimport \"./GLDToken.sol\";\r\n\r\ncontract DutchAuction {\r\n  //events\r\n  event BidSubmission(address indexed sender, uint256 amount);\r\n  \r\n  //constant\r\n  //uint constant public MAX_TOKENS_SOLD = 10*10**18; // 10 Tokens\r\n  uint constant public WAITING_PERIOD = 20 minutes;\r\n\r\n  GLDToken public gldToken;\r\n  address payable public wallet; // tokens seller\r\n  address public owner;\r\n  uint public startingTokenPrice;\r\n  uint public maxTokensSold;\r\n  uint public priceFactor; // decrease rate\r\n  uint public startBlock;\r\n  uint public startTime;\r\n  uint public endTime;\r\n  uint public totalReceived;//this is wei\r\n  uint public finalPrice;\r\n  mapping (address => uint) public bids;\r\n  Stages public stage; //current stage\r\n\r\n  enum Stages {\r\n      AuctionDeployed,\r\n      AuctionSetUp,\r\n      AuctionStarted,\r\n      AuctionEnded,\r\n      TradingStarted\r\n  }\r\n\r\n  //modifiers\r\n  modifier atStage(Stages _stage) {\r\n      if (stage != _stage)\r\n          // Contract not in expected state\r\n          revert(\"wrong stage\");\r\n      _;\r\n  }\r\n\r\n  modifier isOwner() {\r\n      if (msg.sender != owner)\r\n          // Only owner is allowed to proceed\r\n          revert(\"owner only\");\r\n      _;\r\n  }\r\n\r\n  modifier isWallet() {\r\n      if (msg.sender != wallet)\r\n          // Only wallet is allowed to proceed\r\n          revert(\"wallet only\");\r\n      _;\r\n  }\r\n\r\n  modifier isValidPayload() {\r\n      if (msg.data.length != 4 && msg.data.length != 36)\r\n          revert(\"not valid payload\");\r\n      _;\r\n  }\r\n\r\n  modifier timedTransitions() {\r\n      if (stage == Stages.AuctionStarted && calcTokenPrice() <= calcStopPrice())\r\n          finalizeAuction();\r\n    //   if (stage == Stages.AuctionEnded && now > endTime + WAITING_PERIOD)\r\n    //       stage = Stages.TradingStarted;\r\n      _;\r\n  }\r\n\r\n  //functions\r\n  /// @dev Contract constructor function sets owner.\r\n  /// @param _wallet Gnosis GLDTokens wallet.\r\n  /// @param _startingTokenPrice Auction starting price.\r\n  /// @param _priceFactor Auction price factor.\r\n  constructor(address payable _wallet, uint _numOfTokens, uint _startingTokenPrice, uint _priceFactor)\r\n      public\r\n  {\r\n      if (_wallet == address(0x0) || _numOfTokens == 0 ||_startingTokenPrice == 0 || _priceFactor == 0)\r\n          // Arguments are null.\r\n          revert(\"constructor args null\");\r\n      owner = msg.sender;\r\n      wallet = _wallet;\r\n      maxTokensSold = _numOfTokens *10**18;\r\n      startingTokenPrice = _startingTokenPrice;\r\n      priceFactor = _priceFactor;\r\n      stage = Stages.AuctionDeployed;\r\n  }\r\n\r\n  /// @dev Setup function sets external contracts' addresses.\r\n  /// @param _gldToken Gnosis gldToken address.\r\n  function setup(address _gldToken)\r\n      public\r\n      isOwner\r\n      atStage(Stages.AuctionDeployed)\r\n  {\r\n      if (_gldToken == address(0x0))\r\n          // Argument is null.\r\n          revert(\"gold token address is null\");\r\n      gldToken = GLDToken(_gldToken);\r\n      // Validate token balance\r\n      if (gldToken.balanceOf(address(this)) != maxTokensSold) \r\n          revert(\"invalid token balance\");\r\n      stage = Stages.AuctionSetUp;\r\n  }\r\n\r\n  /// @dev Starts auction and sets startBlock.\r\n  function startAuction()\r\n      public\r\n      isWallet\r\n      atStage(Stages.AuctionSetUp)\r\n  {\r\n      stage = Stages.AuctionStarted;\r\n      startBlock = block.number;\r\n      startTime = now;\r\n      //should i put a start time here?\r\n  }\r\n\r\n  /// @dev Changes auction starting price and start price factor before auction is started.\r\n  /// @param _startingTokenPrice Updated auction startingTokenPrice.\r\n  /// @param _priceFactor Updated start price factor.\r\n  function changeSettings(uint _startingTokenPrice, uint _priceFactor)\r\n      public\r\n      isWallet\r\n      atStage(Stages.AuctionSetUp)\r\n  {\r\n      startingTokenPrice = _startingTokenPrice;\r\n      priceFactor = _priceFactor;\r\n  }\r\n\r\n  /// @dev Calculates current token price.\r\n  /// @return Returns token price.\r\n  function calcCurrentTokenPrice() // to display on screen\r\n      view\r\n      public\r\n      returns (uint)\r\n  {\r\n      if (stage == Stages.AuctionEnded || stage == Stages.TradingStarted)\r\n          return finalPrice;\r\n      return calcTokenPrice();\r\n  }\r\n\r\n  /// @dev Returns correct stage, even if a function with timedTransitions modifier has not yet been called yet.\r\n  /// @return Returns current auction stage.\r\n  function updateStage()\r\n      public\r\n      timedTransitions\r\n      returns (Stages)\r\n  {\r\n      return stage;\r\n  }\r\n\r\n  function getMaxTokens()\r\n        view\r\n        public\r\n        returns(uint)\r\n    {\r\n        return maxTokensSold;\r\n    }\r\n\r\n  /// @dev Allows to send a bid to the auction.\r\n  /// @param receiver Bid will be assigned to this address if set.\r\n  function bid(address payable receiver)\r\n      public\r\n      payable\r\n      isValidPayload\r\n      timedTransitions\r\n      atStage(Stages.AuctionStarted)\r\n      returns (uint amount)\r\n  {\r\n      // If a bid is done on behalf of a user via ShapeShift, the receiver address is set.\r\n      if (receiver == address(0x0))\r\n          receiver = msg.sender;\r\n      amount = msg.value;\r\n      // Prevent that more than 90% of tokens are sold. Only relevant if cap not reached.\r\n      uint maxWei = (maxTokensSold/(10**18)) * calcTokenPrice()*10**18 - totalReceived; // calculate how much is need to earn\r\n      // Only invest maximum possible amount.\r\n      if (amount > maxWei) {\r\n          amount = maxWei;\r\n          // Send change back to receiver address. In case of a ShapeShift bid the user receives the change back directly.\r\n          if (!receiver.send(msg.value - amount))\r\n              // Sending failed\r\n              revert(\"sending change back failed\");\r\n      }\r\n      // Forward funding to ether wallet\r\n      if (amount == 0 || !wallet.send(amount))\r\n          // No amount sent or sending failed\r\n          revert(\"sending to wallet failed\");\r\n      bids[receiver] += amount; // remember the claim of each participant\r\n      totalReceived += amount; // amount of money earned\r\n      if (maxWei == amount)\r\n          // When maxWei is equal to the big amount the auction is ended and finalizeAuction is triggered.\r\n          finalizeAuction();\r\n      BidSubmission(receiver, amount);\r\n  }\r\n\r\n  /// @dev Claims tokens for bidder after auction.\r\n  /// @param receiver Tokens will be assigned to this address if set.\r\n  function claimTokens(address receiver)\r\n      public\r\n      isValidPayload\r\n      timedTransitions\r\n      atStage(Stages.TradingStarted)\r\n  {\r\n      if (receiver == address(0x0))\r\n          receiver = msg.sender;\r\n      uint tokenCount = bids[receiver]/(finalPrice* 10**18);\r\n      bids[receiver] = 0;\r\n      gldToken.transfer(receiver, tokenCount*10**18);\r\n  }\r\n\r\n  /// @dev Calculates stop price.\r\n  /// @return Returns stop price.\r\n  function calcStopPrice()\r\n      view\r\n      public\r\n      returns (uint)\r\n  {\r\n      if((WAITING_PERIOD/60)*priceFactor >= startingTokenPrice){\r\n          return 1;\r\n      }\r\n      return startingTokenPrice - (WAITING_PERIOD/60)*priceFactor;\r\n  }\r\n\r\n  /// @dev Calculates token price.\r\n  /// @return Returns token price.\r\n  function calcTokenPrice() //shouldn't price drop with time?\r\n      view\r\n      public\r\n      returns (uint)\r\n  {\r\n      //return priceFactor * 10**18 / (block.number - startBlock + 7500) + 1;\r\n      //return startingTokenPrice - priceFactor*((now - startTime)/60) /**10**18 +1*/; \r\n      //return startingTokenPrice;\r\n      uint tempMinusPrice =  priceFactor * ((now - startTime)/60);\r\n      if(tempMinusPrice >= startingTokenPrice){\r\n          return 1;\r\n      }\r\n      return startingTokenPrice - tempMinusPrice;\r\n  }\r\n  \r\n  // private function\r\n  function finalizeAuction()\r\n      private\r\n  {\r\n      stage = Stages.AuctionEnded;\r\n      if(calcTokenPrice() <= calcStopPrice()){\r\n          finalPrice = calcStopPrice();\r\n      }else{\r\n          finalPrice = calcTokenPrice(); \r\n      }\r\n      \r\n      uint soldTokens = totalReceived/(finalPrice* 10**18);\r\n      // Auction contract transfers all unsold tokens to Gnosis inventory multisig\r\n      gldToken.transfer(wallet, maxTokensSold - soldTokens*10**18);\r\n      //endTime = now;\r\n      stage = Stages.TradingStarted;\r\n  }\r\n}",
  "sourcePath": "D:/Documents(D)/Computer Science Year 3 Sem 1/CZ4153 Blockchain Technology/Project/DutchAuction/src/contracts/DutchAuction.sol",
  "compiler": {
    "name": "solc",
    "version": "0.6.8+commit.0bbfe453.Emscripten.clang"
  },
  "schemaVersion": "3.3.1",
  "updatedAt": "2020-11-03T07:13:15.018Z",
  "networkType": "ethereum",
  "devdoc": {
    "methods": {
      "bid(address)": {
        "details": "Allows to send a bid to the auction.",
        "params": {
          "receiver": "Bid will be assigned to this address if set."
        }
      },
      "calcCurrentTokenPrice()": {
        "details": "Calculates current token price.",
        "returns": {
          "_0": "Returns token price."
        }
      },
      "calcStopPrice()": {
        "details": "Calculates stop price.",
        "returns": {
          "_0": "Returns stop price."
        }
      },
      "calcTokenPrice()": {
        "details": "Calculates token price.",
        "returns": {
          "_0": "Returns token price."
        }
      },
      "changeSettings(uint256,uint256)": {
        "details": "Changes auction starting price and start price factor before auction is started.",
        "params": {
          "_priceFactor": "Updated start price factor.",
          "_startingTokenPrice": "Updated auction startingTokenPrice."
        }
      },
      "claimTokens(address)": {
        "details": "Claims tokens for bidder after auction.",
        "params": {
          "receiver": "Tokens will be assigned to this address if set."
        }
      },
      "constructor": {
        "details": "Contract constructor function sets owner.",
        "params": {
          "_priceFactor": "Auction price factor.",
          "_startingTokenPrice": "Auction starting price.",
          "_wallet": "Gnosis GLDTokens wallet."
        }
      },
      "setup(address)": {
        "details": "Setup function sets external contracts' addresses.",
        "params": {
          "_gldToken": "Gnosis gldToken address."
        }
      },
      "startAuction()": {
        "details": "Starts auction and sets startBlock."
      },
      "updateStage()": {
        "details": "Returns correct stage, even if a function with timedTransitions modifier has not yet been called yet.",
        "returns": {
          "_0": "Returns current auction stage."
        }
      }
    }
  },
  "userdoc": {
    "methods": {}
  }
}